{
  "_format": "hh-sol-artifact-1",
  "contractName": "AccessNFT",
  "sourceName": "src/backend/contracts/AccessNFT.sol",
  "abi": [
    {
      "inputs": [
        {
          "internalType": "contract IERC721",
          "name": "_nft",
          "type": "address"
        },
        {
          "internalType": "uint256",
          "name": "_tokenId",
          "type": "uint256"
        }
      ],
      "stateMutability": "nonpayable",
      "type": "constructor"
    },
    {
      "anonymous": false,
      "inputs": [
        {
          "indexed": true,
          "internalType": "address",
          "name": "owner",
          "type": "address"
        },
        {
          "indexed": true,
          "internalType": "address",
          "name": "approved",
          "type": "address"
        },
        {
          "indexed": true,
          "internalType": "uint256",
          "name": "tokenId",
          "type": "uint256"
        }
      ],
      "name": "Approval",
      "type": "event"
    },
    {
      "anonymous": false,
      "inputs": [
        {
          "indexed": true,
          "internalType": "address",
          "name": "owner",
          "type": "address"
        },
        {
          "indexed": true,
          "internalType": "address",
          "name": "operator",
          "type": "address"
        },
        {
          "indexed": false,
          "internalType": "bool",
          "name": "approved",
          "type": "bool"
        }
      ],
      "name": "ApprovalForAll",
      "type": "event"
    },
    {
      "anonymous": false,
      "inputs": [
        {
          "indexed": false,
          "internalType": "uint256",
          "name": "_fromTokenId",
          "type": "uint256"
        },
        {
          "indexed": false,
          "internalType": "uint256",
          "name": "_toTokenId",
          "type": "uint256"
        }
      ],
      "name": "BatchMetadataUpdate",
      "type": "event"
    },
    {
      "anonymous": false,
      "inputs": [
        {
          "indexed": false,
          "internalType": "uint256",
          "name": "_tokenId",
          "type": "uint256"
        }
      ],
      "name": "MetadataUpdate",
      "type": "event"
    },
    {
      "anonymous": false,
      "inputs": [
        {
          "indexed": true,
          "internalType": "address",
          "name": "from",
          "type": "address"
        },
        {
          "indexed": true,
          "internalType": "address",
          "name": "to",
          "type": "address"
        },
        {
          "indexed": true,
          "internalType": "uint256",
          "name": "tokenId",
          "type": "uint256"
        }
      ],
      "name": "Transfer",
      "type": "event"
    },
    {
      "inputs": [
        {
          "internalType": "address",
          "name": "to",
          "type": "address"
        },
        {
          "internalType": "uint256",
          "name": "tokenId",
          "type": "uint256"
        }
      ],
      "name": "approve",
      "outputs": [],
      "stateMutability": "nonpayable",
      "type": "function"
    },
    {
      "inputs": [
        {
          "internalType": "address",
          "name": "owner",
          "type": "address"
        }
      ],
      "name": "balanceOf",
      "outputs": [
        {
          "internalType": "uint256",
          "name": "",
          "type": "uint256"
        }
      ],
      "stateMutability": "view",
      "type": "function"
    },
    {
      "inputs": [
        {
          "internalType": "uint256",
          "name": "tokenId",
          "type": "uint256"
        }
      ],
      "name": "getApproved",
      "outputs": [
        {
          "internalType": "address",
          "name": "",
          "type": "address"
        }
      ],
      "stateMutability": "view",
      "type": "function"
    },
    {
      "inputs": [
        {
          "internalType": "address",
          "name": "_account",
          "type": "address"
        }
      ],
      "name": "hasAccess",
      "outputs": [
        {
          "internalType": "bool",
          "name": "",
          "type": "bool"
        }
      ],
      "stateMutability": "view",
      "type": "function"
    },
    {
      "inputs": [
        {
          "internalType": "address",
          "name": "owner",
          "type": "address"
        },
        {
          "internalType": "address",
          "name": "operator",
          "type": "address"
        }
      ],
      "name": "isApprovedForAll",
      "outputs": [
        {
          "internalType": "bool",
          "name": "",
          "type": "bool"
        }
      ],
      "stateMutability": "view",
      "type": "function"
    },
    {
      "inputs": [],
      "name": "mintAccessNFT",
      "outputs": [
        {
          "internalType": "uint256",
          "name": "",
          "type": "uint256"
        }
      ],
      "stateMutability": "nonpayable",
      "type": "function"
    },
    {
      "inputs": [],
      "name": "name",
      "outputs": [
        {
          "internalType": "string",
          "name": "",
          "type": "string"
        }
      ],
      "stateMutability": "view",
      "type": "function"
    },
    {
      "inputs": [],
      "name": "nft",
      "outputs": [
        {
          "internalType": "contract IERC721",
          "name": "",
          "type": "address"
        }
      ],
      "stateMutability": "view",
      "type": "function"
    },
    {
      "inputs": [
        {
          "internalType": "uint256",
          "name": "tokenId",
          "type": "uint256"
        }
      ],
      "name": "ownerOf",
      "outputs": [
        {
          "internalType": "address",
          "name": "",
          "type": "address"
        }
      ],
      "stateMutability": "view",
      "type": "function"
    },
    {
      "inputs": [
        {
          "internalType": "address",
          "name": "from",
          "type": "address"
        },
        {
          "internalType": "address",
          "name": "to",
          "type": "address"
        },
        {
          "internalType": "uint256",
          "name": "tokenId",
          "type": "uint256"
        }
      ],
      "name": "safeTransferFrom",
      "outputs": [],
      "stateMutability": "nonpayable",
      "type": "function"
    },
    {
      "inputs": [
        {
          "internalType": "address",
          "name": "from",
          "type": "address"
        },
        {
          "internalType": "address",
          "name": "to",
          "type": "address"
        },
        {
          "internalType": "uint256",
          "name": "tokenId",
          "type": "uint256"
        },
        {
          "internalType": "bytes",
          "name": "data",
          "type": "bytes"
        }
      ],
      "name": "safeTransferFrom",
      "outputs": [],
      "stateMutability": "nonpayable",
      "type": "function"
    },
    {
      "inputs": [
        {
          "internalType": "address",
          "name": "operator",
          "type": "address"
        },
        {
          "internalType": "bool",
          "name": "approved",
          "type": "bool"
        }
      ],
      "name": "setApprovalForAll",
      "outputs": [],
      "stateMutability": "nonpayable",
      "type": "function"
    },
    {
      "inputs": [
        {
          "internalType": "bytes4",
          "name": "interfaceId",
          "type": "bytes4"
        }
      ],
      "name": "supportsInterface",
      "outputs": [
        {
          "internalType": "bool",
          "name": "",
          "type": "bool"
        }
      ],
      "stateMutability": "view",
      "type": "function"
    },
    {
      "inputs": [],
      "name": "symbol",
      "outputs": [
        {
          "internalType": "string",
          "name": "",
          "type": "string"
        }
      ],
      "stateMutability": "view",
      "type": "function"
    },
    {
      "inputs": [],
      "name": "tokenCount",
      "outputs": [
        {
          "internalType": "uint256",
          "name": "",
          "type": "uint256"
        }
      ],
      "stateMutability": "view",
      "type": "function"
    },
    {
      "inputs": [],
      "name": "tokenId",
      "outputs": [
        {
          "internalType": "uint256",
          "name": "",
          "type": "uint256"
        }
      ],
      "stateMutability": "view",
      "type": "function"
    },
    {
      "inputs": [
        {
          "internalType": "uint256",
          "name": "tokenId",
          "type": "uint256"
        }
      ],
      "name": "tokenURI",
      "outputs": [
        {
          "internalType": "string",
          "name": "",
          "type": "string"
        }
      ],
      "stateMutability": "view",
      "type": "function"
    },
    {
      "inputs": [
        {
          "internalType": "address",
          "name": "from",
          "type": "address"
        },
        {
          "internalType": "address",
          "name": "to",
          "type": "address"
        },
        {
          "internalType": "uint256",
          "name": "tokenId",
          "type": "uint256"
        }
      ],
      "name": "transferFrom",
      "outputs": [],
      "stateMutability": "nonpayable",
      "type": "function"
    }
  ],
  "bytecode": "0x60806040523480156200001157600080fd5b5060405162002d7438038062002d74833981810160405281019062000037919062000205565b6040518060400160405280600a81526020017f416363657373204e4654000000000000000000000000000000000000000000008152506040518060400160405280600481526020017f414e4654000000000000000000000000000000000000000000000000000000008152508160009080519060200190620000bb92919062000127565b508060019080519060200190620000d492919062000127565b50505081600860006101000a81548173ffffffffffffffffffffffffffffffffffffffff021916908373ffffffffffffffffffffffffffffffffffffffff16021790555080600981905550505062000331565b828054620001359062000298565b90600052602060002090601f016020900481019282620001595760008555620001a5565b82601f106200017457805160ff1916838001178555620001a5565b82800160010185558215620001a5579182015b82811115620001a457825182559160200191906001019062000187565b5b509050620001b49190620001b8565b5090565b5b80821115620001d3576000816000905550600101620001b9565b5090565b600081519050620001e881620002fd565b92915050565b600081519050620001ff8162000317565b92915050565b600080604083850312156200021957600080fd5b60006200022985828601620001d7565b92505060206200023c85828601620001ee565b9150509250929050565b600062000253826200026e565b9050919050565b6000620002678262000246565b9050919050565b600073ffffffffffffffffffffffffffffffffffffffff82169050919050565b6000819050919050565b60006002820490506001821680620002b157607f821691505b60208210811415620002c857620002c7620002ce565b5b50919050565b7f4e487b7100000000000000000000000000000000000000000000000000000000600052602260045260246000fd5b62000308816200025a565b81146200031457600080fd5b50565b62000322816200028e565b81146200032e57600080fd5b50565b612a3380620003416000396000f3fe608060405234801561001057600080fd5b50600436106101165760003560e01c806370a08231116100a2578063a22cb46511610071578063a22cb465146102f5578063b88d4fde14610311578063c87b56dd1461032d578063e985e9c51461035d578063fabc91d31461038d57610116565b806370a082311461025957806395a078e81461028957806395d89b41146102b95780639f181b5e146102d757610116565b806317d70f7c116100e957806317d70f7c146101b557806323b872dd146101d357806342842e0e146101ef57806347ccca021461020b5780636352211e1461022957610116565b806301ffc9a71461011b57806306fdde031461014b578063081812fc14610169578063095ea7b314610199575b600080fd5b61013560048036038101906101309190611ede565b6103ab565b6040516101429190612244565b60405180910390f35b61015361040c565b604051610160919061227a565b60405180910390f35b610183600480360381019061017e9190611f30565b61049e565b60405161019091906121dd565b60405180910390f35b6101b360048036038101906101ae9190611ea2565b6104e4565b005b6101bd6105fc565b6040516101ca91906123fc565b60405180910390f35b6101ed60048036038101906101e89190611d9c565b610602565b005b61020960048036038101906102049190611d9c565b610662565b005b610213610682565b604051610220919061225f565b60405180910390f35b610243600480360381019061023e9190611f30565b6106a8565b60405161025091906121dd565b60405180910390f35b610273600480360381019061026e9190611d0e565b61072f565b60405161028091906123fc565b60405180910390f35b6102a3600480360381019061029e9190611d0e565b6107e7565b6040516102b09190612244565b60405180910390f35b6102c16108de565b6040516102ce919061227a565b60405180910390f35b6102df610970565b6040516102ec91906123fc565b60405180910390f35b61030f600480360381019061030a9190611e66565b610976565b005b61032b60048036038101906103269190611deb565b61098c565b005b61034760048036038101906103429190611f30565b6109ee565b604051610354919061227a565b60405180910390f35b61037760048036038101906103729190611d60565b610b01565b6040516103849190612244565b60405180910390f35b610395610b95565b6040516103a291906123fc565b60405180910390f35b6000634906490660e01b7bffffffffffffffffffffffffffffffffffffffffffffffffffffffff1916827bffffffffffffffffffffffffffffffffffffffffffffffffffffffff19161480610405575061040482610bc3565b5b9050919050565b60606000805461041b9061258a565b80601f01602080910402602001604051908101604052809291908181526020018280546104479061258a565b80156104945780601f1061046957610100808354040283529160200191610494565b820191906000526020600020905b81548152906001019060200180831161047757829003601f168201915b5050505050905090565b60006104a982610ca5565b6004600083815260200190815260200160002060009054906101000a900473ffffffffffffffffffffffffffffffffffffffff169050919050565b60006104ef826106a8565b90508073ffffffffffffffffffffffffffffffffffffffff168373ffffffffffffffffffffffffffffffffffffffff161415610560576040517f08c379a0000000000000000000000000000000000000000000000000000000008152600401610557906123bc565b60405180910390fd5b8073ffffffffffffffffffffffffffffffffffffffff1661057f610cf0565b73ffffffffffffffffffffffffffffffffffffffff1614806105ae57506105ad816105a8610cf0565b610b01565b5b6105ed576040517f08c379a00000000000000000000000000000000000000000000000000000000081526004016105e4906123dc565b60405180910390fd5b6105f78383610cf8565b505050565b60095481565b61061361060d610cf0565b82610db1565b610652576040517f08c379a00000000000000000000000000000000000000000000000000000000081526004016106499061229c565b60405180910390fd5b61065d838383610e46565b505050565b61067d8383836040518060200160405280600081525061098c565b505050565b600860009054906101000a900473ffffffffffffffffffffffffffffffffffffffff1681565b6000806106b483611140565b9050600073ffffffffffffffffffffffffffffffffffffffff168173ffffffffffffffffffffffffffffffffffffffff161415610726576040517f08c379a000000000000000000000000000000000000000000000000000000000815260040161071d9061239c565b60405180910390fd5b80915050919050565b60008073ffffffffffffffffffffffffffffffffffffffff168273ffffffffffffffffffffffffffffffffffffffff1614156107a0576040517f08c379a00000000000000000000000000000000000000000000000000000000081526004016107979061235c565b60405180910390fd5b600360008373ffffffffffffffffffffffffffffffffffffffff1673ffffffffffffffffffffffffffffffffffffffff168152602001908152602001600020549050919050565b60008173ffffffffffffffffffffffffffffffffffffffff16600860009054906101000a900473ffffffffffffffffffffffffffffffffffffffff1673ffffffffffffffffffffffffffffffffffffffff16636352211e6009546040518263ffffffff1660e01b815260040161085d91906123fc565b60206040518083038186803b15801561087557600080fd5b505afa158015610889573d6000803e3d6000fd5b505050506040513d601f19601f820116820180604052508101906108ad9190611d37565b73ffffffffffffffffffffffffffffffffffffffff1614806108d7575060006108d58361072f565b115b9050919050565b6060600180546108ed9061258a565b80601f01602080910402602001604051908101604052809291908181526020018280546109199061258a565b80156109665780601f1061093b57610100808354040283529160200191610966565b820191906000526020600020905b81548152906001019060200180831161094957829003601f168201915b5050505050905090565b60075481565b610988610981610cf0565b838361117d565b5050565b61099d610997610cf0565b83610db1565b6109dc576040517f08c379a00000000000000000000000000000000000000000000000000000000081526004016109d39061229c565b60405180910390fd5b6109e8848484846112ea565b50505050565b60606109f982610ca5565b6000600660008481526020019081526020016000208054610a199061258a565b80601f0160208091040260200160405190810160405280929190818152602001828054610a459061258a565b8015610a925780601f10610a6757610100808354040283529160200191610a92565b820191906000526020600020905b815481529060010190602001808311610a7557829003601f168201915b505050505090506000610aa3611346565b9050600081511415610ab9578192505050610afc565b600082511115610aee578082604051602001610ad69291906121b9565b60405160208183030381529060405292505050610afc565b610af78461135d565b925050505b919050565b6000600560008473ffffffffffffffffffffffffffffffffffffffff1673ffffffffffffffffffffffffffffffffffffffff16815260200190815260200160002060008373ffffffffffffffffffffffffffffffffffffffff1673ffffffffffffffffffffffffffffffffffffffff16815260200190815260200160002060009054906101000a900460ff16905092915050565b600060076000815480929190610baa906125ed565b9190505550610bbb336007546113c5565b600754905090565b60007f80ac58cd000000000000000000000000000000000000000000000000000000007bffffffffffffffffffffffffffffffffffffffffffffffffffffffff1916827bffffffffffffffffffffffffffffffffffffffffffffffffffffffff19161480610c8e57507f5b5e139f000000000000000000000000000000000000000000000000000000007bffffffffffffffffffffffffffffffffffffffffffffffffffffffff1916827bffffffffffffffffffffffffffffffffffffffffffffffffffffffff1916145b80610c9e5750610c9d826113e3565b5b9050919050565b610cae8161144d565b610ced576040517f08c379a0000000000000000000000000000000000000000000000000000000008152600401610ce49061239c565b60405180910390fd5b50565b600033905090565b816004600083815260200190815260200160002060006101000a81548173ffffffffffffffffffffffffffffffffffffffff021916908373ffffffffffffffffffffffffffffffffffffffff160217905550808273ffffffffffffffffffffffffffffffffffffffff16610d6b836106a8565b73ffffffffffffffffffffffffffffffffffffffff167f8c5be1e5ebec7d5bd14f71427d1e84f3dd0314c0f7b2291e5b200ac8c7c3b92560405160405180910390a45050565b600080610dbd836106a8565b90508073ffffffffffffffffffffffffffffffffffffffff168473ffffffffffffffffffffffffffffffffffffffff161480610dff5750610dfe8185610b01565b5b80610e3d57508373ffffffffffffffffffffffffffffffffffffffff16610e258461049e565b73ffffffffffffffffffffffffffffffffffffffff16145b91505092915050565b8273ffffffffffffffffffffffffffffffffffffffff16610e66826106a8565b73ffffffffffffffffffffffffffffffffffffffff1614610ebc576040517f08c379a0000000000000000000000000000000000000000000000000000000008152600401610eb3906122dc565b60405180910390fd5b600073ffffffffffffffffffffffffffffffffffffffff168273ffffffffffffffffffffffffffffffffffffffff161415610f2c576040517f08c379a0000000000000000000000000000000000000000000000000000000008152600401610f239061231c565b60405180910390fd5b610f39838383600161148e565b8273ffffffffffffffffffffffffffffffffffffffff16610f59826106a8565b73ffffffffffffffffffffffffffffffffffffffff1614610faf576040517f08c379a0000000000000000000000000000000000000000000000000000000008152600401610fa6906122dc565b60405180910390fd5b6004600082815260200190815260200160002060006101000a81549073ffffffffffffffffffffffffffffffffffffffff02191690556001600360008573ffffffffffffffffffffffffffffffffffffffff1673ffffffffffffffffffffffffffffffffffffffff168152602001908152602001600020600082825403925050819055506001600360008473ffffffffffffffffffffffffffffffffffffffff1673ffffffffffffffffffffffffffffffffffffffff16815260200190815260200160002060008282540192505081905550816002600083815260200190815260200160002060006101000a81548173ffffffffffffffffffffffffffffffffffffffff021916908373ffffffffffffffffffffffffffffffffffffffff160217905550808273ffffffffffffffffffffffffffffffffffffffff168473ffffffffffffffffffffffffffffffffffffffff167fddf252ad1be2c89b69c2b068fc378daa952ba7f163c4a11628f55a4df523b3ef60405160405180910390a461113b8383836001611494565b505050565b60006002600083815260200190815260200160002060009054906101000a900473ffffffffffffffffffffffffffffffffffffffff169050919050565b8173ffffffffffffffffffffffffffffffffffffffff168373ffffffffffffffffffffffffffffffffffffffff1614156111ec576040517f08c379a00000000000000000000000000000000000000000000000000000000081526004016111e39061233c565b60405180910390fd5b80600560008573ffffffffffffffffffffffffffffffffffffffff1673ffffffffffffffffffffffffffffffffffffffff16815260200190815260200160002060008473ffffffffffffffffffffffffffffffffffffffff1673ffffffffffffffffffffffffffffffffffffffff16815260200190815260200160002060006101000a81548160ff0219169083151502179055508173ffffffffffffffffffffffffffffffffffffffff168373ffffffffffffffffffffffffffffffffffffffff167f17307eab39ab6107e8899845ad3d59bd9653f200f220920489ca2b5937696c31836040516112dd9190612244565b60405180910390a3505050565b6112f5848484610e46565b6113018484848461149a565b611340576040517f08c379a0000000000000000000000000000000000000000000000000000000008152600401611337906122bc565b60405180910390fd5b50505050565b606060405180602001604052806000815250905090565b606061136882610ca5565b6000611372611346565b9050600081511161139257604051806020016040528060008152506113bd565b8061139c84611631565b6040516020016113ad9291906121b9565b6040516020818303038152906040525b915050919050565b6113df828260405180602001604052806000815250611755565b5050565b60007f01ffc9a7000000000000000000000000000000000000000000000000000000007bffffffffffffffffffffffffffffffffffffffffffffffffffffffff1916827bffffffffffffffffffffffffffffffffffffffffffffffffffffffff1916149050919050565b60008073ffffffffffffffffffffffffffffffffffffffff1661146f83611140565b73ffffffffffffffffffffffffffffffffffffffff1614159050919050565b50505050565b50505050565b60006114bb8473ffffffffffffffffffffffffffffffffffffffff166117b0565b15611624578373ffffffffffffffffffffffffffffffffffffffff1663150b7a026114e4610cf0565b8786866040518563ffffffff1660e01b815260040161150694939291906121f8565b602060405180830381600087803b15801561152057600080fd5b505af192505050801561155157506040513d601f19601f8201168201806040525081019061154e9190611f07565b60015b6115d4573d8060008114611581576040519150601f19603f3d011682016040523d82523d6000602084013e611586565b606091505b506000815114156115cc576040517f08c379a00000000000000000000000000000000000000000000000000000000081526004016115c3906122bc565b60405180910390fd5b805181602001fd5b63150b7a0260e01b7bffffffffffffffffffffffffffffffffffffffffffffffffffffffff1916817bffffffffffffffffffffffffffffffffffffffffffffffffffffffff191614915050611629565b600190505b949350505050565b606060006001611640846117d3565b01905060008167ffffffffffffffff811115611685577f4e487b7100000000000000000000000000000000000000000000000000000000600052604160045260246000fd5b6040519080825280601f01601f1916602001820160405280156116b75781602001600182028036833780820191505090505b509050600082602001820190505b60011561174a578080600190039150507f3031323334353637383961626364656600000000000000000000000000000000600a86061a8153600a8581611734577f4e487b7100000000000000000000000000000000000000000000000000000000600052601260045260246000fd5b04945060008514156117455761174a565b6116c5565b819350505050919050565b61175f8383611a0a565b61176c600084848461149a565b6117ab576040517f08c379a00000000000000000000000000000000000000000000000000000000081526004016117a2906122bc565b60405180910390fd5b505050565b6000808273ffffffffffffffffffffffffffffffffffffffff163b119050919050565b600080600090507a184f03e93ff9f4daa797ed6e38ed64bf6a1f0100000000000000008310611857577a184f03e93ff9f4daa797ed6e38ed64bf6a1f010000000000000000838161184d577f4e487b7100000000000000000000000000000000000000000000000000000000600052601260045260246000fd5b0492506040810190505b6d04ee2d6d415b85acef810000000083106118ba576d04ee2d6d415b85acef810000000083816118b0577f4e487b7100000000000000000000000000000000000000000000000000000000600052601260045260246000fd5b0492506020810190505b662386f26fc10000831061190f57662386f26fc100008381611905577f4e487b7100000000000000000000000000000000000000000000000000000000600052601260045260246000fd5b0492506010810190505b6305f5e100831061195e576305f5e1008381611954577f4e487b7100000000000000000000000000000000000000000000000000000000600052601260045260246000fd5b0492506008810190505b61271083106119a957612710838161199f577f4e487b7100000000000000000000000000000000000000000000000000000000600052601260045260246000fd5b0492506004810190505b606483106119f257606483816119e8577f4e487b7100000000000000000000000000000000000000000000000000000000600052601260045260246000fd5b0492506002810190505b600a8310611a01576001810190505b80915050919050565b600073ffffffffffffffffffffffffffffffffffffffff168273ffffffffffffffffffffffffffffffffffffffff161415611a7a576040517f08c379a0000000000000000000000000000000000000000000000000000000008152600401611a719061237c565b60405180910390fd5b611a838161144d565b15611ac3576040517f08c379a0000000000000000000000000000000000000000000000000000000008152600401611aba906122fc565b60405180910390fd5b611ad160008383600161148e565b611ada8161144d565b15611b1a576040517f08c379a0000000000000000000000000000000000000000000000000000000008152600401611b11906122fc565b60405180910390fd5b6001600360008473ffffffffffffffffffffffffffffffffffffffff1673ffffffffffffffffffffffffffffffffffffffff16815260200190815260200160002060008282540192505081905550816002600083815260200190815260200160002060006101000a81548173ffffffffffffffffffffffffffffffffffffffff021916908373ffffffffffffffffffffffffffffffffffffffff160217905550808273ffffffffffffffffffffffffffffffffffffffff16600073ffffffffffffffffffffffffffffffffffffffff167fddf252ad1be2c89b69c2b068fc378daa952ba7f163c4a11628f55a4df523b3ef60405160405180910390a4611c24600083836001611494565b5050565b6000611c3b611c368461243c565b612417565b905082815260208101848484011115611c5357600080fd5b611c5e848285612548565b509392505050565b600081359050611c75816129a1565b92915050565b600081519050611c8a816129a1565b92915050565b600081359050611c9f816129b8565b92915050565b600081359050611cb4816129cf565b92915050565b600081519050611cc9816129cf565b92915050565b600082601f830112611ce057600080fd5b8135611cf0848260208601611c28565b91505092915050565b600081359050611d08816129e6565b92915050565b600060208284031215611d2057600080fd5b6000611d2e84828501611c66565b91505092915050565b600060208284031215611d4957600080fd5b6000611d5784828501611c7b565b91505092915050565b60008060408385031215611d7357600080fd5b6000611d8185828601611c66565b9250506020611d9285828601611c66565b9150509250929050565b600080600060608486031215611db157600080fd5b6000611dbf86828701611c66565b9350506020611dd086828701611c66565b9250506040611de186828701611cf9565b9150509250925092565b60008060008060808587031215611e0157600080fd5b6000611e0f87828801611c66565b9450506020611e2087828801611c66565b9350506040611e3187828801611cf9565b925050606085013567ffffffffffffffff811115611e4e57600080fd5b611e5a87828801611ccf565b91505092959194509250565b60008060408385031215611e7957600080fd5b6000611e8785828601611c66565b9250506020611e9885828601611c90565b9150509250929050565b60008060408385031215611eb557600080fd5b6000611ec385828601611c66565b9250506020611ed485828601611cf9565b9150509250929050565b600060208284031215611ef057600080fd5b6000611efe84828501611ca5565b91505092915050565b600060208284031215611f1957600080fd5b6000611f2784828501611cba565b91505092915050565b600060208284031215611f4257600080fd5b6000611f5084828501611cf9565b91505092915050565b611f62816124b0565b82525050565b611f71816124c2565b82525050565b6000611f828261246d565b611f8c8185612483565b9350611f9c818560208601612557565b611fa5816126c3565b840191505092915050565b611fb981612524565b82525050565b6000611fca82612478565b611fd48185612494565b9350611fe4818560208601612557565b611fed816126c3565b840191505092915050565b600061200382612478565b61200d81856124a5565b935061201d818560208601612557565b80840191505092915050565b6000612036602d83612494565b9150612041826126d4565b604082019050919050565b6000612059603283612494565b915061206482612723565b604082019050919050565b600061207c602583612494565b915061208782612772565b604082019050919050565b600061209f601c83612494565b91506120aa826127c1565b602082019050919050565b60006120c2602483612494565b91506120cd826127ea565b604082019050919050565b60006120e5601983612494565b91506120f082612839565b602082019050919050565b6000612108602983612494565b915061211382612862565b604082019050919050565b600061212b602083612494565b9150612136826128b1565b602082019050919050565b600061214e601883612494565b9150612159826128da565b602082019050919050565b6000612171602183612494565b915061217c82612903565b604082019050919050565b6000612194603d83612494565b915061219f82612952565b604082019050919050565b6121b38161251a565b82525050565b60006121c58285611ff8565b91506121d18284611ff8565b91508190509392505050565b60006020820190506121f26000830184611f59565b92915050565b600060808201905061220d6000830187611f59565b61221a6020830186611f59565b61222760408301856121aa565b81810360608301526122398184611f77565b905095945050505050565b60006020820190506122596000830184611f68565b92915050565b60006020820190506122746000830184611fb0565b92915050565b600060208201905081810360008301526122948184611fbf565b905092915050565b600060208201905081810360008301526122b581612029565b9050919050565b600060208201905081810360008301526122d58161204c565b9050919050565b600060208201905081810360008301526122f58161206f565b9050919050565b6000602082019050818103600083015261231581612092565b9050919050565b60006020820190508181036000830152612335816120b5565b9050919050565b60006020820190508181036000830152612355816120d8565b9050919050565b60006020820190508181036000830152612375816120fb565b9050919050565b600060208201905081810360008301526123958161211e565b9050919050565b600060208201905081810360008301526123b581612141565b9050919050565b600060208201905081810360008301526123d581612164565b9050919050565b600060208201905081810360008301526123f581612187565b9050919050565b600060208201905061241160008301846121aa565b92915050565b6000612421612432565b905061242d82826125bc565b919050565b6000604051905090565b600067ffffffffffffffff82111561245757612456612694565b5b612460826126c3565b9050602081019050919050565b600081519050919050565b600081519050919050565b600082825260208201905092915050565b600082825260208201905092915050565b600081905092915050565b60006124bb826124fa565b9050919050565b60008115159050919050565b60007fffffffff0000000000000000000000000000000000000000000000000000000082169050919050565b600073ffffffffffffffffffffffffffffffffffffffff82169050919050565b6000819050919050565b600061252f82612536565b9050919050565b6000612541826124fa565b9050919050565b82818337600083830152505050565b60005b8381101561257557808201518184015260208101905061255a565b83811115612584576000848401525b50505050565b600060028204905060018216806125a257607f821691505b602082108114156125b6576125b5612665565b5b50919050565b6125c5826126c3565b810181811067ffffffffffffffff821117156125e4576125e3612694565b5b80604052505050565b60006125f88261251a565b91507fffffffffffffffffffffffffffffffffffffffffffffffffffffffffffffffff82141561262b5761262a612636565b5b600182019050919050565b7f4e487b7100000000000000000000000000000000000000000000000000000000600052601160045260246000fd5b7f4e487b7100000000000000000000000000000000000000000000000000000000600052602260045260246000fd5b7f4e487b7100000000000000000000000000000000000000000000000000000000600052604160045260246000fd5b6000601f19601f8301169050919050565b7f4552433732313a2063616c6c6572206973206e6f7420746f6b656e206f776e6560008201527f72206f7220617070726f76656400000000000000000000000000000000000000602082015250565b7f4552433732313a207472616e7366657220746f206e6f6e20455243373231526560008201527f63656976657220696d706c656d656e7465720000000000000000000000000000602082015250565b7f4552433732313a207472616e736665722066726f6d20696e636f72726563742060008201527f6f776e6572000000000000000000000000000000000000000000000000000000602082015250565b7f4552433732313a20746f6b656e20616c7265616479206d696e74656400000000600082015250565b7f4552433732313a207472616e7366657220746f20746865207a65726f2061646460008201527f7265737300000000000000000000000000000000000000000000000000000000602082015250565b7f4552433732313a20617070726f766520746f2063616c6c657200000000000000600082015250565b7f4552433732313a2061646472657373207a65726f206973206e6f74206120766160008201527f6c6964206f776e65720000000000000000000000000000000000000000000000602082015250565b7f4552433732313a206d696e7420746f20746865207a65726f2061646472657373600082015250565b7f4552433732313a20696e76616c696420746f6b656e2049440000000000000000600082015250565b7f4552433732313a20617070726f76616c20746f2063757272656e74206f776e6560008201527f7200000000000000000000000000000000000000000000000000000000000000602082015250565b7f4552433732313a20617070726f76652063616c6c6572206973206e6f7420746f60008201527f6b656e206f776e6572206f7220617070726f76656420666f7220616c6c000000602082015250565b6129aa816124b0565b81146129b557600080fd5b50565b6129c1816124c2565b81146129cc57600080fd5b50565b6129d8816124ce565b81146129e357600080fd5b50565b6129ef8161251a565b81146129fa57600080fd5b5056fea2646970667358221220e15f2dca79fbb293d928dddce387efdd5bc18bcb380e9ddf18ebf514ae2f8dd764736f6c63430008040033",
  "linkReferences": {},
  "deployedLinkReferences": {}
}