{
  "_format": "hh-sol-artifact-1",
  "contractName": "DynamicRoyalties",
  "sourceName": "src/backend/contracts/DynamicRoyalties.sol",
  "abi": [
    {
      "anonymous": false,
      "inputs": [
        {
          "indexed": true,
          "internalType": "address",
          "name": "previousOwner",
          "type": "address"
        },
        {
          "indexed": true,
          "internalType": "address",
          "name": "newOwner",
          "type": "address"
        }
      ],
      "name": "OwnershipTransferred",
      "type": "event"
    },
    {
      "anonymous": false,
      "inputs": [
        {
          "indexed": false,
          "internalType": "uint256",
          "name": "songId",
          "type": "uint256"
        },
        {
          "indexed": false,
          "internalType": "uint256",
          "name": "amount",
          "type": "uint256"
        },
        {
          "indexed": false,
          "internalType": "address",
          "name": "artist",
          "type": "address"
        }
      ],
      "name": "RoyaltyPaid",
      "type": "event"
    },
    {
      "inputs": [
        {
          "internalType": "uint256",
          "name": "songId",
          "type": "uint256"
        },
        {
          "internalType": "address payable",
          "name": "artist",
          "type": "address"
        }
      ],
      "name": "addSong",
      "outputs": [],
      "stateMutability": "nonpayable",
      "type": "function"
    },
    {
      "inputs": [],
      "name": "fundContract",
      "outputs": [],
      "stateMutability": "payable",
      "type": "function"
    },
    {
      "inputs": [
        {
          "internalType": "uint256",
          "name": "songId",
          "type": "uint256"
        }
      ],
      "name": "listen",
      "outputs": [],
      "stateMutability": "payable",
      "type": "function"
    },
    {
      "inputs": [],
      "name": "owner",
      "outputs": [
        {
          "internalType": "address",
          "name": "",
          "type": "address"
        }
      ],
      "stateMutability": "view",
      "type": "function"
    },
    {
      "inputs": [],
      "name": "renounceOwnership",
      "outputs": [],
      "stateMutability": "nonpayable",
      "type": "function"
    },
    {
      "inputs": [
        {
          "internalType": "uint256",
          "name": "",
          "type": "uint256"
        }
      ],
      "name": "royaltyRates",
      "outputs": [
        {
          "internalType": "uint256",
          "name": "",
          "type": "uint256"
        }
      ],
      "stateMutability": "view",
      "type": "function"
    },
    {
      "inputs": [
        {
          "internalType": "uint256",
          "name": "",
          "type": "uint256"
        }
      ],
      "name": "songs",
      "outputs": [
        {
          "internalType": "uint256",
          "name": "listenCount",
          "type": "uint256"
        },
        {
          "internalType": "uint256",
          "name": "totalRoyalties",
          "type": "uint256"
        },
        {
          "internalType": "address payable",
          "name": "artist",
          "type": "address"
        }
      ],
      "stateMutability": "view",
      "type": "function"
    },
    {
      "inputs": [
        {
          "internalType": "address",
          "name": "newOwner",
          "type": "address"
        }
      ],
      "name": "transferOwnership",
      "outputs": [],
      "stateMutability": "nonpayable",
      "type": "function"
    },
    {
      "inputs": [
        {
          "internalType": "uint256",
          "name": "songId",
          "type": "uint256"
        },
        {
          "internalType": "uint256",
          "name": "newRate",
          "type": "uint256"
        }
      ],
      "name": "updateRoyaltyRate",
      "outputs": [],
      "stateMutability": "nonpayable",
      "type": "function"
    },
    {
      "inputs": [
        {
          "internalType": "uint256",
          "name": "amount",
          "type": "uint256"
        }
      ],
      "name": "withdrawFunds",
      "outputs": [],
      "stateMutability": "nonpayable",
      "type": "function"
    }
  ],
  "bytecode": "0x608060405234801561001057600080fd5b5061002d61002261003260201b60201c565b61003a60201b60201c565b6100fe565b600033905090565b60008060009054906101000a900473ffffffffffffffffffffffffffffffffffffffff169050816000806101000a81548173ffffffffffffffffffffffffffffffffffffffff021916908373ffffffffffffffffffffffffffffffffffffffff1602179055508173ffffffffffffffffffffffffffffffffffffffff168173ffffffffffffffffffffffffffffffffffffffff167f8be0079c531659141344cd1fd0a4f28419497f9722a3daafe3b4186f6b6457e060405160405180910390a35050565b6110968061010d6000396000f3fe6080604052600436106100915760003560e01c80638da5cb5b116100595780638da5cb5b1461015a578063b5a96aeb14610185578063bd097e21146101ae578063f2fde38b146101b8578063f5047781146101e157610091565b8063155dd5ee146100965780631e5f7e72146100bf57806328b61415146100db578063304cff3014610104578063715018a614610143575b600080fd5b3480156100a257600080fd5b506100bd60048036038101906100b89190610a81565b61021e565b005b6100d960048036038101906100d49190610a81565b61032e565b005b3480156100e757600080fd5b5061010260048036038101906100fd9190610aaa565b6104e8565b005b34801561011057600080fd5b5061012b60048036038101906101269190610a81565b61062c565b60405161013a93929190610cd7565b60405180910390f35b34801561014f57600080fd5b50610158610676565b005b34801561016657600080fd5b5061016f6106fe565b60405161017c9190610bea565b60405180910390f35b34801561019157600080fd5b506101ac60048036038101906101a79190610ae6565b610727565b005b6101b66107bf565b005b3480156101c457600080fd5b506101df60048036038101906101da9190610a58565b61083d565b005b3480156101ed57600080fd5b5061020860048036038101906102039190610a81565b610935565b6040516102159190610c85565b60405180910390f35b61022661094d565b73ffffffffffffffffffffffffffffffffffffffff166102446106fe565b73ffffffffffffffffffffffffffffffffffffffff161461029a576040517f08c379a000000000000000000000000000000000000000000000000000000000815260040161029190610c25565b60405180910390fd5b804710156102dd576040517f08c379a00000000000000000000000000000000000000000000000000000000081526004016102d490610c65565b60405180910390fd5b6102e56106fe565b73ffffffffffffffffffffffffffffffffffffffff166108fc829081150290604051600060405180830381858888f1935050505015801561032a573d6000803e3d6000fd5b5050565b600060016000838152602001908152602001600020905080600001600081548092919061035a90610e53565b9190505550600060026000848152602001908152602001600020549050804710156103ba576040517f08c379a00000000000000000000000000000000000000000000000000000000081526004016103b190610c45565b60405180910390fd5b808260010160008282546103ce9190610d1f565b925050819055508160020160009054906101000a900473ffffffffffffffffffffffffffffffffffffffff1673ffffffffffffffffffffffffffffffffffffffff166108fc829081150290604051600060405180830381858888f1935050505015801561043f573d6000803e3d6000fd5b507f2e80f0d7d411757d7a487139cd9acf9c64e948061a9e3d4d5bc76ab6a71848e983828460020160009054906101000a900473ffffffffffffffffffffffffffffffffffffffff1660405161049793929190610ca0565b60405180910390a16000600a83600001546104b29190610e9c565b14156104e357600280600085815260200190815260200160002060008282546104db9190610d75565b925050819055505b505050565b6104f061094d565b73ffffffffffffffffffffffffffffffffffffffff1661050e6106fe565b73ffffffffffffffffffffffffffffffffffffffff1614610564576040517f08c379a000000000000000000000000000000000000000000000000000000000815260040161055b90610c25565b60405180910390fd5b604051806060016040528060008152602001600081526020018273ffffffffffffffffffffffffffffffffffffffff1681525060016000848152602001908152602001600020600082015181600001556020820151816001015560408201518160020160006101000a81548173ffffffffffffffffffffffffffffffffffffffff021916908373ffffffffffffffffffffffffffffffffffffffff16021790555090505067016345785d8a000060026000848152602001908152602001600020819055505050565b60016020528060005260406000206000915090508060000154908060010154908060020160009054906101000a900473ffffffffffffffffffffffffffffffffffffffff16905083565b61067e61094d565b73ffffffffffffffffffffffffffffffffffffffff1661069c6106fe565b73ffffffffffffffffffffffffffffffffffffffff16146106f2576040517f08c379a00000000000000000000000000000000000000000000000000000000081526004016106e990610c25565b60405180910390fd5b6106fc6000610955565b565b60008060009054906101000a900473ffffffffffffffffffffffffffffffffffffffff16905090565b61072f61094d565b73ffffffffffffffffffffffffffffffffffffffff1661074d6106fe565b73ffffffffffffffffffffffffffffffffffffffff16146107a3576040517f08c379a000000000000000000000000000000000000000000000000000000000815260040161079a90610c25565b60405180910390fd5b8060026000848152602001908152602001600020819055505050565b6107c761094d565b73ffffffffffffffffffffffffffffffffffffffff166107e56106fe565b73ffffffffffffffffffffffffffffffffffffffff161461083b576040517f08c379a000000000000000000000000000000000000000000000000000000000815260040161083290610c25565b60405180910390fd5b565b61084561094d565b73ffffffffffffffffffffffffffffffffffffffff166108636106fe565b73ffffffffffffffffffffffffffffffffffffffff16146108b9576040517f08c379a00000000000000000000000000000000000000000000000000000000081526004016108b090610c25565b60405180910390fd5b600073ffffffffffffffffffffffffffffffffffffffff168173ffffffffffffffffffffffffffffffffffffffff161415610929576040517f08c379a000000000000000000000000000000000000000000000000000000000815260040161092090610c05565b60405180910390fd5b61093281610955565b50565b60026020528060005260406000206000915090505481565b600033905090565b60008060009054906101000a900473ffffffffffffffffffffffffffffffffffffffff169050816000806101000a81548173ffffffffffffffffffffffffffffffffffffffff021916908373ffffffffffffffffffffffffffffffffffffffff1602179055508173ffffffffffffffffffffffffffffffffffffffff168173ffffffffffffffffffffffffffffffffffffffff167f8be0079c531659141344cd1fd0a4f28419497f9722a3daafe3b4186f6b6457e060405160405180910390a35050565b600081359050610a288161101b565b92915050565b600081359050610a3d81611032565b92915050565b600081359050610a5281611049565b92915050565b600060208284031215610a6a57600080fd5b6000610a7884828501610a19565b91505092915050565b600060208284031215610a9357600080fd5b6000610aa184828501610a43565b91505092915050565b60008060408385031215610abd57600080fd5b6000610acb85828601610a43565b9250506020610adc85828601610a2e565b9150509250929050565b60008060408385031215610af957600080fd5b6000610b0785828601610a43565b9250506020610b1885828601610a43565b9150509250929050565b610b2b81610e1d565b82525050565b610b3a81610de1565b82525050565b610b4981610dcf565b82525050565b6000610b5c602683610d0e565b9150610b6782610f2b565b604082019050919050565b6000610b7f602083610d0e565b9150610b8a82610f7a565b602082019050919050565b6000610ba2602c83610d0e565b9150610bad82610fa3565b604082019050919050565b6000610bc5601d83610d0e565b9150610bd082610ff2565b602082019050919050565b610be481610e13565b82525050565b6000602082019050610bff6000830184610b40565b92915050565b60006020820190508181036000830152610c1e81610b4f565b9050919050565b60006020820190508181036000830152610c3e81610b72565b9050919050565b60006020820190508181036000830152610c5e81610b95565b9050919050565b60006020820190508181036000830152610c7e81610bb8565b9050919050565b6000602082019050610c9a6000830184610bdb565b92915050565b6000606082019050610cb56000830186610bdb565b610cc26020830185610bdb565b610ccf6040830184610b22565b949350505050565b6000606082019050610cec6000830186610bdb565b610cf96020830185610bdb565b610d066040830184610b31565b949350505050565b600082825260208201905092915050565b6000610d2a82610e13565b9150610d3583610e13565b9250827fffffffffffffffffffffffffffffffffffffffffffffffffffffffffffffffff03821115610d6a57610d69610ecd565b5b828201905092915050565b6000610d8082610e13565b9150610d8b83610e13565b9250817fffffffffffffffffffffffffffffffffffffffffffffffffffffffffffffffff0483118215151615610dc457610dc3610ecd565b5b828202905092915050565b6000610dda82610df3565b9050919050565b6000610dec82610df3565b9050919050565b600073ffffffffffffffffffffffffffffffffffffffff82169050919050565b6000819050919050565b6000610e2882610e2f565b9050919050565b6000610e3a82610e41565b9050919050565b6000610e4c82610df3565b9050919050565b6000610e5e82610e13565b91507fffffffffffffffffffffffffffffffffffffffffffffffffffffffffffffffff821415610e9157610e90610ecd565b5b600182019050919050565b6000610ea782610e13565b9150610eb283610e13565b925082610ec257610ec1610efc565b5b828206905092915050565b7f4e487b7100000000000000000000000000000000000000000000000000000000600052601160045260246000fd5b7f4e487b7100000000000000000000000000000000000000000000000000000000600052601260045260246000fd5b7f4f776e61626c653a206e6577206f776e657220697320746865207a65726f206160008201527f6464726573730000000000000000000000000000000000000000000000000000602082015250565b7f4f776e61626c653a2063616c6c6572206973206e6f7420746865206f776e6572600082015250565b7f496e73756666696369656e7420636f6e74726163742062616c616e636520746f60008201527f2070617920726f79616c74790000000000000000000000000000000000000000602082015250565b7f496e73756666696369656e7420636f6e74726163742062616c616e6365000000600082015250565b61102481610dcf565b811461102f57600080fd5b50565b61103b81610de1565b811461104657600080fd5b50565b61105281610e13565b811461105d57600080fd5b5056fea2646970667358221220b29d40949d9464103c0c9d393864ad435c681718962e117dbd0d13f6de79c59764736f6c63430008040033",
  "linkReferences": {},
  "deployedLinkReferences": {}
}