{
  "_format": "hh-sol-artifact-1",
  "contractName": "DynamicRoyalties",
  "sourceName": "src/backend/contracts/DynamicRoyalties.sol",
  "abi": [
    {
      "inputs": [
        {
          "internalType": "address payable",
          "name": "_companyAddress",
          "type": "address"
        }
      ],
      "stateMutability": "nonpayable",
      "type": "constructor"
    },
    {
      "anonymous": false,
      "inputs": [
        {
          "indexed": false,
          "internalType": "address",
          "name": "artist",
          "type": "address"
        },
        {
          "indexed": false,
          "internalType": "uint256",
          "name": "amount",
          "type": "uint256"
        }
      ],
      "name": "ArtistPaid",
      "type": "event"
    },
    {
      "anonymous": false,
      "inputs": [
        {
          "indexed": true,
          "internalType": "address",
          "name": "previousOwner",
          "type": "address"
        },
        {
          "indexed": true,
          "internalType": "address",
          "name": "newOwner",
          "type": "address"
        }
      ],
      "name": "OwnershipTransferred",
      "type": "event"
    },
    {
      "inputs": [],
      "name": "companyAddress",
      "outputs": [
        {
          "internalType": "address payable",
          "name": "",
          "type": "address"
        }
      ],
      "stateMutability": "view",
      "type": "function"
    },
    {
      "inputs": [
        {
          "internalType": "address payable",
          "name": "artistAddress",
          "type": "address"
        },
        {
          "internalType": "uint256",
          "name": "amount",
          "type": "uint256"
        }
      ],
      "name": "distributeRoyalties",
      "outputs": [],
      "stateMutability": "nonpayable",
      "type": "function"
    },
    {
      "inputs": [],
      "name": "fundContract",
      "outputs": [],
      "stateMutability": "payable",
      "type": "function"
    },
    {
      "inputs": [],
      "name": "owner",
      "outputs": [
        {
          "internalType": "address",
          "name": "",
          "type": "address"
        }
      ],
      "stateMutability": "view",
      "type": "function"
    },
    {
      "inputs": [],
      "name": "renounceOwnership",
      "outputs": [],
      "stateMutability": "nonpayable",
      "type": "function"
    },
    {
      "inputs": [
        {
          "internalType": "address",
          "name": "newOwner",
          "type": "address"
        }
      ],
      "name": "transferOwnership",
      "outputs": [],
      "stateMutability": "nonpayable",
      "type": "function"
    },
    {
      "inputs": [
        {
          "internalType": "uint256",
          "name": "amount",
          "type": "uint256"
        }
      ],
      "name": "withdrawFunds",
      "outputs": [],
      "stateMutability": "nonpayable",
      "type": "function"
    }
  ],
  "bytecode": "0x608060405234801561001057600080fd5b50604051610c13380380610c1383398181016040528101906100329190610176565b61004e61004361009560201b60201c565b61009d60201b60201c565b80600160006101000a81548173ffffffffffffffffffffffffffffffffffffffff021916908373ffffffffffffffffffffffffffffffffffffffff160217905550506101e8565b600033905090565b60008060009054906101000a900473ffffffffffffffffffffffffffffffffffffffff169050816000806101000a81548173ffffffffffffffffffffffffffffffffffffffff021916908373ffffffffffffffffffffffffffffffffffffffff1602179055508173ffffffffffffffffffffffffffffffffffffffff168173ffffffffffffffffffffffffffffffffffffffff167f8be0079c531659141344cd1fd0a4f28419497f9722a3daafe3b4186f6b6457e060405160405180910390a35050565b600081519050610170816101d1565b92915050565b60006020828403121561018857600080fd5b600061019684828501610161565b91505092915050565b60006101aa826101b1565b9050919050565b600073ffffffffffffffffffffffffffffffffffffffff82169050919050565b6101da8161019f565b81146101e557600080fd5b50565b610a1c806101f76000396000f3fe6080604052600436106100705760003560e01c80638da5cb5b1161004e5780638da5cb5b146100e0578063a363de921461010b578063bd097e2114610134578063f2fde38b1461013e57610070565b8063155dd5ee1461007557806353e1ead91461009e578063715018a6146100c9575b600080fd5b34801561008157600080fd5b5061009c6004803603810190610097919061064c565b610167565b005b3480156100aa57600080fd5b506100b361021e565b6040516100c09190610758565b60405180910390f35b3480156100d557600080fd5b506100de610244565b005b3480156100ec57600080fd5b506100f5610258565b604051610102919061073d565b60405180910390f35b34801561011757600080fd5b50610132600480360381019061012d9190610610565b610281565b005b61013c610348565b005b34801561014a57600080fd5b50610165600480360381019061016091906105e7565b6103da565b005b61016f61045e565b804710156101b2576040517f08c379a00000000000000000000000000000000000000000000000000000000081526004016101a9906107fc565b60405180910390fd5b600160009054906101000a900473ffffffffffffffffffffffffffffffffffffffff1673ffffffffffffffffffffffffffffffffffffffff166108fc829081150290604051600060405180830381858888f1935050505015801561021a573d6000803e3d6000fd5b5050565b600160009054906101000a900473ffffffffffffffffffffffffffffffffffffffff1681565b61024c61045e565b61025660006104dc565b565b60008060009054906101000a900473ffffffffffffffffffffffffffffffffffffffff16905090565b804710156102c4576040517f08c379a00000000000000000000000000000000000000000000000000000000081526004016102bb906107fc565b60405180910390fd5b8173ffffffffffffffffffffffffffffffffffffffff166108fc829081150290604051600060405180830381858888f1935050505015801561030a573d6000803e3d6000fd5b507f87a97bb7195135cfd4eb53a7ae5b65a883ed2ca3207893d97815d33afd138451828260405161033c929190610773565b60405180910390a15050565b600160009054906101000a900473ffffffffffffffffffffffffffffffffffffffff1673ffffffffffffffffffffffffffffffffffffffff163373ffffffffffffffffffffffffffffffffffffffff16146103d8576040517f08c379a00000000000000000000000000000000000000000000000000000000081526004016103cf906107dc565b60405180910390fd5b565b6103e261045e565b600073ffffffffffffffffffffffffffffffffffffffff168173ffffffffffffffffffffffffffffffffffffffff161415610452576040517f08c379a00000000000000000000000000000000000000000000000000000000081526004016104499061079c565b60405180910390fd5b61045b816104dc565b50565b6104666105a0565b73ffffffffffffffffffffffffffffffffffffffff16610484610258565b73ffffffffffffffffffffffffffffffffffffffff16146104da576040517f08c379a00000000000000000000000000000000000000000000000000000000081526004016104d1906107bc565b60405180910390fd5b565b60008060009054906101000a900473ffffffffffffffffffffffffffffffffffffffff169050816000806101000a81548173ffffffffffffffffffffffffffffffffffffffff021916908373ffffffffffffffffffffffffffffffffffffffff1602179055508173ffffffffffffffffffffffffffffffffffffffff168173ffffffffffffffffffffffffffffffffffffffff167f8be0079c531659141344cd1fd0a4f28419497f9722a3daafe3b4186f6b6457e060405160405180910390a35050565b600033905090565b6000813590506105b7816109a1565b92915050565b6000813590506105cc816109b8565b92915050565b6000813590506105e1816109cf565b92915050565b6000602082840312156105f957600080fd5b6000610607848285016105a8565b91505092915050565b6000806040838503121561062357600080fd5b6000610631858286016105bd565b9250506020610642858286016105d2565b9150509250929050565b60006020828403121561065e57600080fd5b600061066c848285016105d2565b91505092915050565b61067e8161087b565b82525050565b61068d8161083f565b82525050565b61069c8161082d565b82525050565b60006106af60268361081c565b91506106ba826108b1565b604082019050919050565b60006106d260208361081c565b91506106dd82610900565b602082019050919050565b60006106f5602a8361081c565b915061070082610929565b604082019050919050565b6000610718601d8361081c565b915061072382610978565b602082019050919050565b61073781610871565b82525050565b60006020820190506107526000830184610693565b92915050565b600060208201905061076d6000830184610684565b92915050565b60006040820190506107886000830185610675565b610795602083018461072e565b9392505050565b600060208201905081810360008301526107b5816106a2565b9050919050565b600060208201905081810360008301526107d5816106c5565b9050919050565b600060208201905081810360008301526107f5816106e8565b9050919050565b600060208201905081810360008301526108158161070b565b9050919050565b600082825260208201905092915050565b600061083882610851565b9050919050565b600061084a82610851565b9050919050565b600073ffffffffffffffffffffffffffffffffffffffff82169050919050565b6000819050919050565b60006108868261088d565b9050919050565b60006108988261089f565b9050919050565b60006108aa82610851565b9050919050565b7f4f776e61626c653a206e6577206f776e657220697320746865207a65726f206160008201527f6464726573730000000000000000000000000000000000000000000000000000602082015250565b7f4f776e61626c653a2063616c6c6572206973206e6f7420746865206f776e6572600082015250565b7f4f6e6c7920636f6d70616e7920616464726573732063616e2066756e6420746860008201527f6520636f6e747261637400000000000000000000000000000000000000000000602082015250565b7f496e73756666696369656e7420636f6e74726163742062616c616e6365000000600082015250565b6109aa8161082d565b81146109b557600080fd5b50565b6109c18161083f565b81146109cc57600080fd5b50565b6109d881610871565b81146109e357600080fd5b5056fea26469706673582212203523bf65ad30dd6ea19d3c90a56114f9cab0bb351cb4df4f2d31def0d6b6a13f64736f6c63430008040033",
  "linkReferences": {},
  "deployedLinkReferences": {}
}