{
  "_format": "hh-sol-artifact-1",
  "contractName": "Marketplace",
  "sourceName": "src/backend/contracts/Marketplace.sol",
  "abi": [
    {
      "inputs": [
        {
          "internalType": "uint256",
          "name": "_feePercent",
          "type": "uint256"
        }
      ],
      "stateMutability": "nonpayable",
      "type": "constructor"
    },
    {
      "anonymous": false,
      "inputs": [
        {
          "indexed": false,
          "internalType": "uint256",
          "name": "itemId",
          "type": "uint256"
        },
        {
          "indexed": true,
          "internalType": "address",
          "name": "nft",
          "type": "address"
        },
        {
          "indexed": false,
          "internalType": "uint256",
          "name": "tokenId",
          "type": "uint256"
        },
        {
          "indexed": false,
          "internalType": "uint256",
          "name": "price",
          "type": "uint256"
        },
        {
          "indexed": true,
          "internalType": "address",
          "name": "seller",
          "type": "address"
        },
        {
          "indexed": true,
          "internalType": "address",
          "name": "buyer",
          "type": "address"
        }
      ],
      "name": "Bought",
      "type": "event"
    },
    {
      "anonymous": false,
      "inputs": [
        {
          "indexed": false,
          "internalType": "uint256",
          "name": "itemId",
          "type": "uint256"
        },
        {
          "indexed": true,
          "internalType": "address",
          "name": "nft",
          "type": "address"
        },
        {
          "indexed": false,
          "internalType": "uint256",
          "name": "tokenId",
          "type": "uint256"
        },
        {
          "indexed": false,
          "internalType": "uint256",
          "name": "price",
          "type": "uint256"
        },
        {
          "indexed": true,
          "internalType": "address",
          "name": "seller",
          "type": "address"
        }
      ],
      "name": "Offered",
      "type": "event"
    },
    {
      "anonymous": false,
      "inputs": [
        {
          "indexed": true,
          "internalType": "uint256",
          "name": "itemId",
          "type": "uint256"
        },
        {
          "indexed": true,
          "internalType": "address",
          "name": "player",
          "type": "address"
        }
      ],
      "name": "Played",
      "type": "event"
    },
    {
      "inputs": [],
      "name": "feeAccount",
      "outputs": [
        {
          "internalType": "address payable",
          "name": "",
          "type": "address"
        }
      ],
      "stateMutability": "view",
      "type": "function"
    },
    {
      "inputs": [],
      "name": "feePercent",
      "outputs": [
        {
          "internalType": "uint256",
          "name": "",
          "type": "uint256"
        }
      ],
      "stateMutability": "view",
      "type": "function"
    },
    {
      "inputs": [
        {
          "internalType": "uint256",
          "name": "_itemId",
          "type": "uint256"
        }
      ],
      "name": "getTotalPrice",
      "outputs": [
        {
          "internalType": "uint256",
          "name": "",
          "type": "uint256"
        }
      ],
      "stateMutability": "view",
      "type": "function"
    },
    {
      "inputs": [],
      "name": "itemCount",
      "outputs": [
        {
          "internalType": "uint256",
          "name": "",
          "type": "uint256"
        }
      ],
      "stateMutability": "view",
      "type": "function"
    },
    {
      "inputs": [
        {
          "internalType": "uint256",
          "name": "",
          "type": "uint256"
        }
      ],
      "name": "items",
      "outputs": [
        {
          "internalType": "uint256",
          "name": "itemId",
          "type": "uint256"
        },
        {
          "internalType": "contract IERC721",
          "name": "nft",
          "type": "address"
        },
        {
          "internalType": "uint256",
          "name": "tokenId",
          "type": "uint256"
        },
        {
          "internalType": "uint256",
          "name": "price",
          "type": "uint256"
        },
        {
          "internalType": "address payable",
          "name": "seller",
          "type": "address"
        },
        {
          "internalType": "bool",
          "name": "sold",
          "type": "bool"
        }
      ],
      "stateMutability": "view",
      "type": "function"
    },
    {
      "inputs": [
        {
          "internalType": "uint256",
          "name": "",
          "type": "uint256"
        }
      ],
      "name": "listenCount",
      "outputs": [
        {
          "internalType": "uint256",
          "name": "",
          "type": "uint256"
        }
      ],
      "stateMutability": "view",
      "type": "function"
    },
    {
      "inputs": [
        {
          "internalType": "contract IERC721",
          "name": "_nft",
          "type": "address"
        },
        {
          "internalType": "uint256",
          "name": "_tokenId",
          "type": "uint256"
        },
        {
          "internalType": "uint256",
          "name": "_price",
          "type": "uint256"
        }
      ],
      "name": "makeItem",
      "outputs": [],
      "stateMutability": "nonpayable",
      "type": "function"
    },
    {
      "inputs": [
        {
          "internalType": "uint256",
          "name": "_itemId",
          "type": "uint256"
        }
      ],
      "name": "playNFT",
      "outputs": [],
      "stateMutability": "nonpayable",
      "type": "function"
    },
    {
      "inputs": [
        {
          "internalType": "uint256",
          "name": "_itemId",
          "type": "uint256"
        }
      ],
      "name": "purchaseItem",
      "outputs": [],
      "stateMutability": "payable",
      "type": "function"
    }
  ],
  "bytecode": "0x60c06040523480156200001157600080fd5b50604051620015263803806200152683398181016040528101906200003791906200009c565b60016000819055503373ffffffffffffffffffffffffffffffffffffffff1660808173ffffffffffffffffffffffffffffffffffffffff1660601b815250508060a0818152505050620000ec565b6000815190506200009681620000d2565b92915050565b600060208284031215620000af57600080fd5b6000620000bf8482850162000085565b91505092915050565b6000819050919050565b620000dd81620000c8565b8114620000e957600080fd5b50565b60805160601c60a05161140362000123600039600081816103f501526104a60152600081816103cb015261077901526114036000f3fe6080604052600436106100865760003560e01c80637fd6f15c116100595780637fd6f15c14610147578063bfb231d214610172578063ca7dd375146101b4578063d38ea5bf146101f1578063fa00afc71461020d57610086565b8063060a5b361461008b57806309ca9319146100b457806365e17c9d146100f15780636bfb0d011461011c575b600080fd5b34801561009757600080fd5b506100b260048036038101906100ad9190610cf2565b610236565b005b3480156100c057600080fd5b506100db60048036038101906100d69190610cf2565b6103b1565b6040516100e89190610f73565b60405180910390f35b3480156100fd57600080fd5b506101066103c9565b6040516101139190610e61565b60405180910390f35b34801561012857600080fd5b506101316103ed565b60405161013e9190610f73565b60405180910390f35b34801561015357600080fd5b5061015c6103f3565b6040516101699190610f73565b60405180910390f35b34801561017e57600080fd5b5061019960048036038101906101949190610cf2565b610417565b6040516101ab96959493929190610f8e565b60405180910390f35b3480156101c057600080fd5b506101db60048036038101906101d69190610cf2565b6104a0565b6040516101e89190610f73565b60405180910390f35b61020b60048036038101906102069190610cf2565b610503565b005b34801561021957600080fd5b50610234600480360381019061022f9190610ca3565b61097e565b005b60006003600083815260200190815260200160002090508060010160009054906101000a900473ffffffffffffffffffffffffffffffffffffffff1673ffffffffffffffffffffffffffffffffffffffff16637409e4a282600201546040518263ffffffff1660e01b81526004016102ae9190610f73565b60206040518083038186803b1580156102c657600080fd5b505afa1580156102da573d6000803e3d6000fd5b505050506040513d601f19601f820116820180604052508101906102fe9190610d1b565b421115610340576040517f08c379a000000000000000000000000000000000000000000000000000000000815260040161033790610f13565b60405180910390fd5b600260008381526020019081526020016000206000815480929190610364906111dc565b91905055503373ffffffffffffffffffffffffffffffffffffffff16827f69b7f86d2227d184c188de5761558ad710287870175d143c466f7fb4406ce5ce60405160405180910390a35050565b60026020528060005260406000206000915090505481565b7f000000000000000000000000000000000000000000000000000000000000000081565b60015481565b7f000000000000000000000000000000000000000000000000000000000000000081565b60036020528060005260406000206000915090508060000154908060010160009054906101000a900473ffffffffffffffffffffffffffffffffffffffff16908060020154908060030154908060040160009054906101000a900473ffffffffffffffffffffffffffffffffffffffff16908060040160149054906101000a900460ff16905086565b600060647f000000000000000000000000000000000000000000000000000000000000000060646104d19190611037565b60036000858152602001908152602001600020600301546104f291906110be565b6104fc919061108d565b9050919050565b61050b610c0a565b6000610516826104a0565b9050600060036000848152602001908152602001600020905060008311801561054157506001548311155b610580576040517f08c379a000000000000000000000000000000000000000000000000000000000815260040161057790610f33565b60405180910390fd5b813410156105c3576040517f08c379a00000000000000000000000000000000000000000000000000000000081526004016105ba90610ef3565b60405180910390fd5b8060040160149054906101000a900460ff1615610615576040517f08c379a000000000000000000000000000000000000000000000000000000000815260040161060c90610eb3565b60405180910390fd5b8060010160009054906101000a900473ffffffffffffffffffffffffffffffffffffffff1673ffffffffffffffffffffffffffffffffffffffff16637409e4a282600201546040518263ffffffff1660e01b81526004016106769190610f73565b60206040518083038186803b15801561068e57600080fd5b505afa1580156106a2573d6000803e3d6000fd5b505050506040513d601f19601f820116820180604052508101906106c69190610d1b565b421115610708576040517f08c379a00000000000000000000000000000000000000000000000000000000081526004016106ff90610f13565b60405180910390fd5b8060040160009054906101000a900473ffffffffffffffffffffffffffffffffffffffff1673ffffffffffffffffffffffffffffffffffffffff166108fc82600301549081150290604051600060405180830381858888f19350505050158015610776573d6000803e3d6000fd5b507f000000000000000000000000000000000000000000000000000000000000000073ffffffffffffffffffffffffffffffffffffffff166108fc8260030154846107c19190611118565b9081150290604051600060405180830381858888f193505050501580156107ec573d6000803e3d6000fd5b5060018160040160146101000a81548160ff0219169083151502179055508060010160009054906101000a900473ffffffffffffffffffffffffffffffffffffffff1673ffffffffffffffffffffffffffffffffffffffff166323b872dd303384600201546040518463ffffffff1660e01b815260040161086f93929190610e7c565b600060405180830381600087803b15801561088957600080fd5b505af115801561089d573d6000803e3d6000fd5b505050503373ffffffffffffffffffffffffffffffffffffffff168160040160009054906101000a900473ffffffffffffffffffffffffffffffffffffffff1673ffffffffffffffffffffffffffffffffffffffff168260010160009054906101000a900473ffffffffffffffffffffffffffffffffffffffff1673ffffffffffffffffffffffffffffffffffffffff167f8b4c9c8a607d67b321582dd8461041b1dc2ceeca70c8b7f37f8e02095cf2e76d868560020154866003015460405161096993929190610fef565b60405180910390a4505061097b610c5a565b50565b610986610c0a565b600081116109c9576040517f08c379a00000000000000000000000000000000000000000000000000000000081526004016109c090610ed3565b60405180910390fd5b600160008154809291906109dc906111dc565b91905055508273ffffffffffffffffffffffffffffffffffffffff166323b872dd3330856040518463ffffffff1660e01b8152600401610a1e93929190610e7c565b600060405180830381600087803b158015610a3857600080fd5b505af1158015610a4c573d6000803e3d6000fd5b505050506040518060c0016040528060015481526020018473ffffffffffffffffffffffffffffffffffffffff1681526020018381526020018281526020013373ffffffffffffffffffffffffffffffffffffffff168152602001600015158152506003600060015481526020019081526020016000206000820151816000015560208201518160010160006101000a81548173ffffffffffffffffffffffffffffffffffffffff021916908373ffffffffffffffffffffffffffffffffffffffff160217905550604082015181600201556060820151816003015560808201518160040160006101000a81548173ffffffffffffffffffffffffffffffffffffffff021916908373ffffffffffffffffffffffffffffffffffffffff16021790555060a08201518160040160146101000a81548160ff0219169083151502179055509050503373ffffffffffffffffffffffffffffffffffffffff168373ffffffffffffffffffffffffffffffffffffffff167f655a0cf9c8db81512be9a76dc1c5ae5380b8816ce6ad659cd61b715e2999d59a6001548585604051610bf593929190610fef565b60405180910390a3610c05610c5a565b505050565b60026000541415610c50576040517f08c379a0000000000000000000000000000000000000000000000000000000008152600401610c4790610f53565b60405180910390fd5b6002600081905550565b6001600081905550565b600081359050610c738161139f565b92915050565b600081359050610c88816113b6565b92915050565b600081519050610c9d816113b6565b92915050565b600080600060608486031215610cb857600080fd5b6000610cc686828701610c64565b9350506020610cd786828701610c79565b9250506040610ce886828701610c79565b9150509250925092565b600060208284031215610d0457600080fd5b6000610d1284828501610c79565b91505092915050565b600060208284031215610d2d57600080fd5b6000610d3b84828501610c8e565b91505092915050565b610d4d8161115e565b82525050565b610d5c8161114c565b82525050565b610d6b81611170565b82525050565b610d7a816111b8565b82525050565b6000610d8d601183611026565b9150610d9882611283565b602082019050919050565b6000610db0601f83611026565b9150610dbb826112ac565b602082019050919050565b6000610dd3603383611026565b9150610dde826112d5565b604082019050919050565b6000610df6600f83611026565b9150610e0182611324565b602082019050919050565b6000610e19601283611026565b9150610e248261134d565b602082019050919050565b6000610e3c601f83611026565b9150610e4782611376565b602082019050919050565b610e5b816111ae565b82525050565b6000602082019050610e766000830184610d44565b92915050565b6000606082019050610e916000830186610d53565b610e9e6020830185610d53565b610eab6040830184610e52565b949350505050565b60006020820190508181036000830152610ecc81610d80565b9050919050565b60006020820190508181036000830152610eec81610da3565b9050919050565b60006020820190508181036000830152610f0c81610dc6565b9050919050565b60006020820190508181036000830152610f2c81610de9565b9050919050565b60006020820190508181036000830152610f4c81610e0c565b9050919050565b60006020820190508181036000830152610f6c81610e2f565b9050919050565b6000602082019050610f886000830184610e52565b92915050565b600060c082019050610fa36000830189610e52565b610fb06020830188610d71565b610fbd6040830187610e52565b610fca6060830186610e52565b610fd76080830185610d44565b610fe460a0830184610d62565b979650505050505050565b60006060820190506110046000830186610e52565b6110116020830185610e52565b61101e6040830184610e52565b949350505050565b600082825260208201905092915050565b6000611042826111ae565b915061104d836111ae565b9250827fffffffffffffffffffffffffffffffffffffffffffffffffffffffffffffffff0382111561108257611081611225565b5b828201905092915050565b6000611098826111ae565b91506110a3836111ae565b9250826110b3576110b2611254565b5b828204905092915050565b60006110c9826111ae565b91506110d4836111ae565b9250817fffffffffffffffffffffffffffffffffffffffffffffffffffffffffffffffff048311821515161561110d5761110c611225565b5b828202905092915050565b6000611123826111ae565b915061112e836111ae565b92508282101561114157611140611225565b5b828203905092915050565b60006111578261118e565b9050919050565b60006111698261118e565b9050919050565b60008115159050919050565b60006111878261114c565b9050919050565b600073ffffffffffffffffffffffffffffffffffffffff82169050919050565b6000819050919050565b60006111c3826111ca565b9050919050565b60006111d58261118e565b9050919050565b60006111e7826111ae565b91507fffffffffffffffffffffffffffffffffffffffffffffffffffffffffffffffff82141561121a57611219611225565b5b600182019050919050565b7f4e487b7100000000000000000000000000000000000000000000000000000000600052601160045260246000fd5b7f4e487b7100000000000000000000000000000000000000000000000000000000600052601260045260246000fd5b7f6974656d20616c726561647920736f6c64000000000000000000000000000000600082015250565b7f5072696365206d7573742062652067726561746572207468616e207a65726f00600082015250565b7f6e6f7420656e6f75676820657468657220746f20636f766572206974656d207060008201527f7269636520616e64206d61726b65742066656500000000000000000000000000602082015250565b7f4e46542068617320657870697265640000000000000000000000000000000000600082015250565b7f6974656d20646f65736e27742065786973740000000000000000000000000000600082015250565b7f5265656e7472616e637947756172643a207265656e7472616e742063616c6c00600082015250565b6113a88161117c565b81146113b357600080fd5b50565b6113bf816111ae565b81146113ca57600080fd5b5056fea26469706673582212200c06c4bcc5d9709f38b0cf87ec5880855bdad30a01d8da9a1c8aa8dea9692ca164736f6c63430008040033",
  "linkReferences": {},
  "deployedLinkReferences": {}
}