{
  "_format": "hh-sol-artifact-1",
  "contractName": "Marketplace",
  "sourceName": "src/backend/contracts/Marketplace.sol",
  "abi": [
    {
      "inputs": [
        {
          "internalType": "uint256",
          "name": "_feePercent",
          "type": "uint256"
        }
      ],
      "stateMutability": "nonpayable",
      "type": "constructor"
    },
    {
      "anonymous": false,
      "inputs": [
        {
          "indexed": false,
          "internalType": "uint256",
          "name": "itemId",
          "type": "uint256"
        },
        {
          "indexed": true,
          "internalType": "address",
          "name": "nft",
          "type": "address"
        },
        {
          "indexed": false,
          "internalType": "uint256",
          "name": "tokenId",
          "type": "uint256"
        },
        {
          "indexed": false,
          "internalType": "uint256",
          "name": "price",
          "type": "uint256"
        },
        {
          "indexed": true,
          "internalType": "address",
          "name": "seller",
          "type": "address"
        },
        {
          "indexed": true,
          "internalType": "address",
          "name": "buyer",
          "type": "address"
        }
      ],
      "name": "Bought",
      "type": "event"
    },
    {
      "anonymous": false,
      "inputs": [
        {
          "indexed": false,
          "internalType": "uint256",
          "name": "itemId",
          "type": "uint256"
        },
        {
          "indexed": true,
          "internalType": "address",
          "name": "nft",
          "type": "address"
        },
        {
          "indexed": false,
          "internalType": "uint256",
          "name": "tokenId",
          "type": "uint256"
        },
        {
          "indexed": false,
          "internalType": "uint256",
          "name": "price",
          "type": "uint256"
        },
        {
          "indexed": true,
          "internalType": "address",
          "name": "seller",
          "type": "address"
        }
      ],
      "name": "Offered",
      "type": "event"
    },
    {
      "anonymous": false,
      "inputs": [
        {
          "indexed": true,
          "internalType": "uint256",
          "name": "itemId",
          "type": "uint256"
        },
        {
          "indexed": true,
          "internalType": "address",
          "name": "player",
          "type": "address"
        }
      ],
      "name": "Played",
      "type": "event"
    },
    {
      "inputs": [],
      "name": "feeAccount",
      "outputs": [
        {
          "internalType": "address payable",
          "name": "",
          "type": "address"
        }
      ],
      "stateMutability": "view",
      "type": "function"
    },
    {
      "inputs": [],
      "name": "feePercent",
      "outputs": [
        {
          "internalType": "uint256",
          "name": "",
          "type": "uint256"
        }
      ],
      "stateMutability": "view",
      "type": "function"
    },
    {
      "inputs": [
        {
          "internalType": "uint256",
          "name": "_itemId",
          "type": "uint256"
        }
      ],
      "name": "getTotalPrice",
      "outputs": [
        {
          "internalType": "uint256",
          "name": "",
          "type": "uint256"
        }
      ],
      "stateMutability": "view",
      "type": "function"
    },
    {
      "inputs": [],
      "name": "itemCount",
      "outputs": [
        {
          "internalType": "uint256",
          "name": "",
          "type": "uint256"
        }
      ],
      "stateMutability": "view",
      "type": "function"
    },
    {
      "inputs": [
        {
          "internalType": "uint256",
          "name": "",
          "type": "uint256"
        }
      ],
      "name": "items",
      "outputs": [
        {
          "internalType": "uint256",
          "name": "itemId",
          "type": "uint256"
        },
        {
          "internalType": "contract IERC721",
          "name": "nft",
          "type": "address"
        },
        {
          "internalType": "uint256",
          "name": "tokenId",
          "type": "uint256"
        },
        {
          "internalType": "uint256",
          "name": "price",
          "type": "uint256"
        },
        {
          "internalType": "address payable",
          "name": "seller",
          "type": "address"
        },
        {
          "internalType": "bool",
          "name": "sold",
          "type": "bool"
        }
      ],
      "stateMutability": "view",
      "type": "function"
    },
    {
      "inputs": [
        {
          "internalType": "uint256",
          "name": "",
          "type": "uint256"
        }
      ],
      "name": "listenCount",
      "outputs": [
        {
          "internalType": "uint256",
          "name": "",
          "type": "uint256"
        }
      ],
      "stateMutability": "view",
      "type": "function"
    },
    {
      "inputs": [
        {
          "internalType": "contract IERC721",
          "name": "_nft",
          "type": "address"
        },
        {
          "internalType": "uint256",
          "name": "_tokenId",
          "type": "uint256"
        },
        {
          "internalType": "uint256",
          "name": "_price",
          "type": "uint256"
        }
      ],
      "name": "makeItem",
      "outputs": [],
      "stateMutability": "nonpayable",
      "type": "function"
    },
    {
      "inputs": [
        {
          "internalType": "uint256",
          "name": "_itemId",
          "type": "uint256"
        }
      ],
      "name": "playNFT",
      "outputs": [],
      "stateMutability": "nonpayable",
      "type": "function"
    },
    {
      "inputs": [
        {
          "internalType": "uint256",
          "name": "_itemId",
          "type": "uint256"
        }
      ],
      "name": "purchaseItem",
      "outputs": [],
      "stateMutability": "payable",
      "type": "function"
    }
  ],
  "bytecode": "0x60c060405234801561001057600080fd5b506040516112a13803806112a183398181016040528101906100329190610094565b60016000819055503373ffffffffffffffffffffffffffffffffffffffff1660808173ffffffffffffffffffffffffffffffffffffffff1660601b815250508060a08181525050506100de565b60008151905061008e816100c7565b92915050565b6000602082840312156100a657600080fd5b60006100b48482850161007f565b91505092915050565b6000819050919050565b6100d0816100bd565b81146100db57600080fd5b50565b60805160601c60a05161118d610114600039600081816102ea015261039b0152600081816102c001526105c1015261118d6000f3fe6080604052600436106100865760003560e01c80637fd6f15c116100595780637fd6f15c14610147578063bfb231d214610172578063ca7dd375146101b4578063d38ea5bf146101f1578063fa00afc71461020d57610086565b8063060a5b361461008b57806309ca9319146100b457806365e17c9d146100f15780636bfb0d011461011c575b600080fd5b34801561009757600080fd5b506100b260048036038101906100ad9190610b11565b610236565b005b3480156100c057600080fd5b506100db60048036038101906100d69190610b11565b6102a6565b6040516100e89190610d26565b60405180910390f35b3480156100fd57600080fd5b506101066102be565b6040516101139190610c34565b60405180910390f35b34801561012857600080fd5b506101316102e2565b60405161013e9190610d26565b60405180910390f35b34801561015357600080fd5b5061015c6102e8565b6040516101699190610d26565b60405180910390f35b34801561017e57600080fd5b5061019960048036038101906101949190610b11565b61030c565b6040516101ab96959493929190610d41565b60405180910390f35b3480156101c057600080fd5b506101db60048036038101906101d69190610b11565b610395565b6040516101e89190610d26565b60405180910390f35b61020b60048036038101906102069190610b11565b6103f8565b005b34801561021957600080fd5b50610234600480360381019061022f9190610ac2565b6107c6565b005b60026000828152602001908152602001600020600081548092919061025a90610f8f565b91905055503373ffffffffffffffffffffffffffffffffffffffff16817f69b7f86d2227d184c188de5761558ad710287870175d143c466f7fb4406ce5ce60405160405180910390a350565b60026020528060005260406000206000915090505481565b7f000000000000000000000000000000000000000000000000000000000000000081565b60015481565b7f000000000000000000000000000000000000000000000000000000000000000081565b60036020528060005260406000206000915090508060000154908060010160009054906101000a900473ffffffffffffffffffffffffffffffffffffffff16908060020154908060030154908060040160009054906101000a900473ffffffffffffffffffffffffffffffffffffffff16908060040160149054906101000a900460ff16905086565b600060647f000000000000000000000000000000000000000000000000000000000000000060646103c69190610dea565b60036000858152602001908152602001600020600301546103e79190610e71565b6103f19190610e40565b9050919050565b6002600054141561043e576040517f08c379a000000000000000000000000000000000000000000000000000000000815260040161043590610d06565b60405180910390fd5b6002600081905550600061045182610395565b9050600060036000848152602001908152602001600020905060008311801561047c57506001548311155b6104bb576040517f08c379a00000000000000000000000000000000000000000000000000000000081526004016104b290610ce6565b60405180910390fd5b813410156104fe576040517f08c379a00000000000000000000000000000000000000000000000000000000081526004016104f590610cc6565b60405180910390fd5b8060040160149054906101000a900460ff1615610550576040517f08c379a000000000000000000000000000000000000000000000000000000000815260040161054790610c86565b60405180910390fd5b8060040160009054906101000a900473ffffffffffffffffffffffffffffffffffffffff1673ffffffffffffffffffffffffffffffffffffffff166108fc82600301549081150290604051600060405180830381858888f193505050501580156105be573d6000803e3d6000fd5b507f000000000000000000000000000000000000000000000000000000000000000073ffffffffffffffffffffffffffffffffffffffff166108fc8260030154846106099190610ecb565b9081150290604051600060405180830381858888f19350505050158015610634573d6000803e3d6000fd5b5060018160040160146101000a81548160ff0219169083151502179055508060010160009054906101000a900473ffffffffffffffffffffffffffffffffffffffff1673ffffffffffffffffffffffffffffffffffffffff166323b872dd303384600201546040518463ffffffff1660e01b81526004016106b793929190610c4f565b600060405180830381600087803b1580156106d157600080fd5b505af11580156106e5573d6000803e3d6000fd5b505050503373ffffffffffffffffffffffffffffffffffffffff168160040160009054906101000a900473ffffffffffffffffffffffffffffffffffffffff1673ffffffffffffffffffffffffffffffffffffffff168260010160009054906101000a900473ffffffffffffffffffffffffffffffffffffffff1673ffffffffffffffffffffffffffffffffffffffff167f8b4c9c8a607d67b321582dd8461041b1dc2ceeca70c8b7f37f8e02095cf2e76d86856002015486600301546040516107b193929190610da2565b60405180910390a45050600160008190555050565b6002600054141561080c576040517f08c379a000000000000000000000000000000000000000000000000000000000815260040161080390610d06565b60405180910390fd5b600260008190555060008111610857576040517f08c379a000000000000000000000000000000000000000000000000000000000815260040161084e90610ca6565b60405180910390fd5b6001600081548092919061086a90610f8f565b91905055508273ffffffffffffffffffffffffffffffffffffffff166323b872dd3330856040518463ffffffff1660e01b81526004016108ac93929190610c4f565b600060405180830381600087803b1580156108c657600080fd5b505af11580156108da573d6000803e3d6000fd5b505050506040518060c0016040528060015481526020018473ffffffffffffffffffffffffffffffffffffffff1681526020018381526020018281526020013373ffffffffffffffffffffffffffffffffffffffff168152602001600015158152506003600060015481526020019081526020016000206000820151816000015560208201518160010160006101000a81548173ffffffffffffffffffffffffffffffffffffffff021916908373ffffffffffffffffffffffffffffffffffffffff160217905550604082015181600201556060820151816003015560808201518160040160006101000a81548173ffffffffffffffffffffffffffffffffffffffff021916908373ffffffffffffffffffffffffffffffffffffffff16021790555060a08201518160040160146101000a81548160ff0219169083151502179055509050503373ffffffffffffffffffffffffffffffffffffffff168373ffffffffffffffffffffffffffffffffffffffff167f655a0cf9c8db81512be9a76dc1c5ae5380b8816ce6ad659cd61b715e2999d59a6001548585604051610a8393929190610da2565b60405180910390a36001600081905550505050565b600081359050610aa781611129565b92915050565b600081359050610abc81611140565b92915050565b600080600060608486031215610ad757600080fd5b6000610ae586828701610a98565b9350506020610af686828701610aad565b9250506040610b0786828701610aad565b9150509250925092565b600060208284031215610b2357600080fd5b6000610b3184828501610aad565b91505092915050565b610b4381610f11565b82525050565b610b5281610eff565b82525050565b610b6181610f23565b82525050565b610b7081610f6b565b82525050565b6000610b83601183610dd9565b9150610b8e82611036565b602082019050919050565b6000610ba6601f83610dd9565b9150610bb18261105f565b602082019050919050565b6000610bc9603383610dd9565b9150610bd482611088565b604082019050919050565b6000610bec601283610dd9565b9150610bf7826110d7565b602082019050919050565b6000610c0f601f83610dd9565b9150610c1a82611100565b602082019050919050565b610c2e81610f61565b82525050565b6000602082019050610c496000830184610b3a565b92915050565b6000606082019050610c646000830186610b49565b610c716020830185610b49565b610c7e6040830184610c25565b949350505050565b60006020820190508181036000830152610c9f81610b76565b9050919050565b60006020820190508181036000830152610cbf81610b99565b9050919050565b60006020820190508181036000830152610cdf81610bbc565b9050919050565b60006020820190508181036000830152610cff81610bdf565b9050919050565b60006020820190508181036000830152610d1f81610c02565b9050919050565b6000602082019050610d3b6000830184610c25565b92915050565b600060c082019050610d566000830189610c25565b610d636020830188610b67565b610d706040830187610c25565b610d7d6060830186610c25565b610d8a6080830185610b3a565b610d9760a0830184610b58565b979650505050505050565b6000606082019050610db76000830186610c25565b610dc46020830185610c25565b610dd16040830184610c25565b949350505050565b600082825260208201905092915050565b6000610df582610f61565b9150610e0083610f61565b9250827fffffffffffffffffffffffffffffffffffffffffffffffffffffffffffffffff03821115610e3557610e34610fd8565b5b828201905092915050565b6000610e4b82610f61565b9150610e5683610f61565b925082610e6657610e65611007565b5b828204905092915050565b6000610e7c82610f61565b9150610e8783610f61565b9250817fffffffffffffffffffffffffffffffffffffffffffffffffffffffffffffffff0483118215151615610ec057610ebf610fd8565b5b828202905092915050565b6000610ed682610f61565b9150610ee183610f61565b925082821015610ef457610ef3610fd8565b5b828203905092915050565b6000610f0a82610f41565b9050919050565b6000610f1c82610f41565b9050919050565b60008115159050919050565b6000610f3a82610eff565b9050919050565b600073ffffffffffffffffffffffffffffffffffffffff82169050919050565b6000819050919050565b6000610f7682610f7d565b9050919050565b6000610f8882610f41565b9050919050565b6000610f9a82610f61565b91507fffffffffffffffffffffffffffffffffffffffffffffffffffffffffffffffff821415610fcd57610fcc610fd8565b5b600182019050919050565b7f4e487b7100000000000000000000000000000000000000000000000000000000600052601160045260246000fd5b7f4e487b7100000000000000000000000000000000000000000000000000000000600052601260045260246000fd5b7f6974656d20616c726561647920736f6c64000000000000000000000000000000600082015250565b7f5072696365206d7573742062652067726561746572207468616e207a65726f00600082015250565b7f6e6f7420656e6f75676820657468657220746f20636f766572206974656d207060008201527f7269636520616e64206d61726b65742066656500000000000000000000000000602082015250565b7f6974656d20646f65736e27742065786973740000000000000000000000000000600082015250565b7f5265656e7472616e637947756172643a207265656e7472616e742063616c6c00600082015250565b61113281610f2f565b811461113d57600080fd5b50565b61114981610f61565b811461115457600080fd5b5056fea2646970667358221220875fa2b2a06f85e7922a2828caa7d5f17995a4cec317e87947061a8142a32ac864736f6c63430008040033",
  "linkReferences": {},
  "deployedLinkReferences": {}
}