{
  "_format": "hh-sol-artifact-1",
  "contractName": "Marketplace",
  "sourceName": "src/backend/contracts/Marketplace.sol",
  "abi": [
    {
      "inputs": [
        {
          "internalType": "uint256",
          "name": "_feePercent",
          "type": "uint256"
        }
      ],
      "stateMutability": "nonpayable",
      "type": "constructor"
    },
    {
      "anonymous": false,
      "inputs": [
        {
          "indexed": false,
          "internalType": "uint256",
          "name": "itemId",
          "type": "uint256"
        },
        {
          "indexed": true,
          "internalType": "address",
          "name": "nft",
          "type": "address"
        },
        {
          "indexed": false,
          "internalType": "uint256",
          "name": "tokenId",
          "type": "uint256"
        },
        {
          "indexed": false,
          "internalType": "uint256",
          "name": "price",
          "type": "uint256"
        },
        {
          "indexed": true,
          "internalType": "address",
          "name": "seller",
          "type": "address"
        },
        {
          "indexed": true,
          "internalType": "address",
          "name": "buyer",
          "type": "address"
        }
      ],
      "name": "Bought",
      "type": "event"
    },
    {
      "anonymous": false,
      "inputs": [
        {
          "indexed": false,
          "internalType": "uint256",
          "name": "itemId",
          "type": "uint256"
        },
        {
          "indexed": true,
          "internalType": "address",
          "name": "nft",
          "type": "address"
        },
        {
          "indexed": false,
          "internalType": "uint256",
          "name": "tokenId",
          "type": "uint256"
        },
        {
          "indexed": false,
          "internalType": "uint256",
          "name": "price",
          "type": "uint256"
        },
        {
          "indexed": true,
          "internalType": "address",
          "name": "seller",
          "type": "address"
        },
        {
          "indexed": false,
          "internalType": "uint256",
          "name": "expirationTime",
          "type": "uint256"
        }
      ],
      "name": "Offered",
      "type": "event"
    },
    {
      "anonymous": false,
      "inputs": [
        {
          "indexed": true,
          "internalType": "uint256",
          "name": "itemId",
          "type": "uint256"
        },
        {
          "indexed": true,
          "internalType": "address",
          "name": "player",
          "type": "address"
        }
      ],
      "name": "Played",
      "type": "event"
    },
    {
      "inputs": [],
      "name": "feeAccount",
      "outputs": [
        {
          "internalType": "address payable",
          "name": "",
          "type": "address"
        }
      ],
      "stateMutability": "view",
      "type": "function"
    },
    {
      "inputs": [],
      "name": "feePercent",
      "outputs": [
        {
          "internalType": "uint256",
          "name": "",
          "type": "uint256"
        }
      ],
      "stateMutability": "view",
      "type": "function"
    },
    {
      "inputs": [
        {
          "internalType": "uint256",
          "name": "_itemId",
          "type": "uint256"
        }
      ],
      "name": "getTotalPrice",
      "outputs": [
        {
          "internalType": "uint256",
          "name": "",
          "type": "uint256"
        }
      ],
      "stateMutability": "view",
      "type": "function"
    },
    {
      "inputs": [],
      "name": "itemCount",
      "outputs": [
        {
          "internalType": "uint256",
          "name": "",
          "type": "uint256"
        }
      ],
      "stateMutability": "view",
      "type": "function"
    },
    {
      "inputs": [
        {
          "internalType": "uint256",
          "name": "",
          "type": "uint256"
        }
      ],
      "name": "items",
      "outputs": [
        {
          "internalType": "uint256",
          "name": "itemId",
          "type": "uint256"
        },
        {
          "internalType": "contract IERC721",
          "name": "nft",
          "type": "address"
        },
        {
          "internalType": "uint256",
          "name": "tokenId",
          "type": "uint256"
        },
        {
          "internalType": "uint256",
          "name": "price",
          "type": "uint256"
        },
        {
          "internalType": "address payable",
          "name": "seller",
          "type": "address"
        },
        {
          "internalType": "bool",
          "name": "sold",
          "type": "bool"
        },
        {
          "internalType": "uint256",
          "name": "expirationTime",
          "type": "uint256"
        }
      ],
      "stateMutability": "view",
      "type": "function"
    },
    {
      "inputs": [
        {
          "internalType": "uint256",
          "name": "",
          "type": "uint256"
        }
      ],
      "name": "listenCount",
      "outputs": [
        {
          "internalType": "uint256",
          "name": "",
          "type": "uint256"
        }
      ],
      "stateMutability": "view",
      "type": "function"
    },
    {
      "inputs": [
        {
          "internalType": "contract IERC721",
          "name": "_nft",
          "type": "address"
        },
        {
          "internalType": "uint256",
          "name": "_tokenId",
          "type": "uint256"
        },
        {
          "internalType": "uint256",
          "name": "_price",
          "type": "uint256"
        },
        {
          "internalType": "uint256",
          "name": "_expirationTime",
          "type": "uint256"
        }
      ],
      "name": "makeItem",
      "outputs": [],
      "stateMutability": "nonpayable",
      "type": "function"
    },
    {
      "inputs": [
        {
          "internalType": "uint256",
          "name": "_itemId",
          "type": "uint256"
        }
      ],
      "name": "playNFT",
      "outputs": [],
      "stateMutability": "nonpayable",
      "type": "function"
    },
    {
      "inputs": [
        {
          "internalType": "uint256",
          "name": "_itemId",
          "type": "uint256"
        }
      ],
      "name": "purchaseItem",
      "outputs": [],
      "stateMutability": "payable",
      "type": "function"
    }
  ],
  "bytecode": "0x60c060405234801561001057600080fd5b50604051620014053803806200140583398181016040528101906100349190610096565b60016000819055503373ffffffffffffffffffffffffffffffffffffffff1660808173ffffffffffffffffffffffffffffffffffffffff1660601b815250508060a08181525050506100e0565b600081519050610090816100c9565b92915050565b6000602082840312156100a857600080fd5b60006100b684828501610081565b91505092915050565b6000819050919050565b6100d2816100bf565b81146100dd57600080fd5b50565b60805160601c60a0516112ee62000117600039600081816105e901526106a001526000818161032001526108c701526112ee6000f3fe6080604052600436106100865760003560e01c80636bfb0d01116100595780636bfb0d01146101455780637fd6f15c14610170578063bfb231d21461019b578063ca7dd375146101de578063d38ea5bf1461021b57610086565b8063060a5b361461008b57806309ca9319146100b457806365e17c9d146100f1578063696aae081461011c575b600080fd5b34801561009757600080fd5b506100b260048036038101906100ad9190610bb3565b610237565b005b3480156100c057600080fd5b506100db60048036038101906100d69190610bb3565b610306565b6040516100e89190610e0b565b60405180910390f35b3480156100fd57600080fd5b5061010661031e565b6040516101139190610cf9565b60405180910390f35b34801561012857600080fd5b50610143600480360381019061013e9190610b50565b610342565b005b34801561015157600080fd5b5061015a6105e1565b6040516101679190610e0b565b60405180910390f35b34801561017c57600080fd5b506101856105e7565b6040516101929190610e0b565b60405180910390f35b3480156101a757600080fd5b506101c260048036038101906101bd9190610bb3565b61060b565b6040516101d59796959493929190610e26565b60405180910390f35b3480156101ea57600080fd5b5061020560048036038101906102009190610bb3565b61069a565b6040516102129190610e0b565b60405180910390f35b61023560048036038101906102309190610bb3565b6106fd565b005b60006003600083815260200190815260200160002090508060050154421115610295576040517f08c379a000000000000000000000000000000000000000000000000000000000815260040161028c90610dab565b60405180910390fd5b6002600083815260200190815260200160002060008154809291906102b9906110c7565b91905055503373ffffffffffffffffffffffffffffffffffffffff16827f69b7f86d2227d184c188de5761558ad710287870175d143c466f7fb4406ce5ce60405160405180910390a35050565b60026020528060005260406000206000915090505481565b7f000000000000000000000000000000000000000000000000000000000000000081565b61034a610acc565b6000821161038d576040517f08c379a000000000000000000000000000000000000000000000000000000000815260040161038490610d6b565b60405180910390fd5b600160008154809291906103a0906110c7565b91905055508373ffffffffffffffffffffffffffffffffffffffff166323b872dd3330866040518463ffffffff1660e01b81526004016103e293929190610d14565b600060405180830381600087803b1580156103fc57600080fd5b505af1158015610410573d6000803e3d6000fd5b505050506040518060e0016040528060015481526020018573ffffffffffffffffffffffffffffffffffffffff1681526020018481526020018381526020013373ffffffffffffffffffffffffffffffffffffffff168152602001600015158152602001828152506003600060015481526020019081526020016000206000820151816000015560208201518160010160006101000a81548173ffffffffffffffffffffffffffffffffffffffff021916908373ffffffffffffffffffffffffffffffffffffffff160217905550604082015181600201556060820151816003015560808201518160040160006101000a81548173ffffffffffffffffffffffffffffffffffffffff021916908373ffffffffffffffffffffffffffffffffffffffff16021790555060a08201518160040160146101000a81548160ff02191690831515021790555060c082015181600501559050503373ffffffffffffffffffffffffffffffffffffffff168473ffffffffffffffffffffffffffffffffffffffff167f68691bf1ff4da1d17e26d154d655adee05f2c30e99638bfce346224ffd4909956001548686866040516105cb9493929190610ecc565b60405180910390a36105db610b1c565b50505050565b60015481565b7f000000000000000000000000000000000000000000000000000000000000000081565b60036020528060005260406000206000915090508060000154908060010160009054906101000a900473ffffffffffffffffffffffffffffffffffffffff16908060020154908060030154908060040160009054906101000a900473ffffffffffffffffffffffffffffffffffffffff16908060040160149054906101000a900460ff16908060050154905087565b600060647f000000000000000000000000000000000000000000000000000000000000000060646106cb9190610f22565b60036000858152602001908152602001600020600301546106ec9190610fa9565b6106f69190610f78565b9050919050565b610705610acc565b60006107108261069a565b9050600060036000848152602001908152602001600020905060008311801561073b57506001548311155b61077a576040517f08c379a000000000000000000000000000000000000000000000000000000000815260040161077190610dcb565b60405180910390fd5b813410156107bd576040517f08c379a00000000000000000000000000000000000000000000000000000000081526004016107b490610d8b565b60405180910390fd5b8060040160149054906101000a900460ff161561080f576040517f08c379a000000000000000000000000000000000000000000000000000000000815260040161080690610d4b565b60405180910390fd5b8060050154421115610856576040517f08c379a000000000000000000000000000000000000000000000000000000000815260040161084d90610dab565b60405180910390fd5b8060040160009054906101000a900473ffffffffffffffffffffffffffffffffffffffff1673ffffffffffffffffffffffffffffffffffffffff166108fc82600301549081150290604051600060405180830381858888f193505050501580156108c4573d6000803e3d6000fd5b507f000000000000000000000000000000000000000000000000000000000000000073ffffffffffffffffffffffffffffffffffffffff166108fc82600301548461090f9190611003565b9081150290604051600060405180830381858888f1935050505015801561093a573d6000803e3d6000fd5b5060018160040160146101000a81548160ff0219169083151502179055508060010160009054906101000a900473ffffffffffffffffffffffffffffffffffffffff1673ffffffffffffffffffffffffffffffffffffffff166323b872dd303384600201546040518463ffffffff1660e01b81526004016109bd93929190610d14565b600060405180830381600087803b1580156109d757600080fd5b505af11580156109eb573d6000803e3d6000fd5b505050503373ffffffffffffffffffffffffffffffffffffffff168160040160009054906101000a900473ffffffffffffffffffffffffffffffffffffffff1673ffffffffffffffffffffffffffffffffffffffff168260010160009054906101000a900473ffffffffffffffffffffffffffffffffffffffff1673ffffffffffffffffffffffffffffffffffffffff167f8b4c9c8a607d67b321582dd8461041b1dc2ceeca70c8b7f37f8e02095cf2e76d8685600201548660030154604051610ab793929190610e95565b60405180910390a45050610ac9610b1c565b50565b60026000541415610b12576040517f08c379a0000000000000000000000000000000000000000000000000000000008152600401610b0990610deb565b60405180910390fd5b6002600081905550565b6001600081905550565b600081359050610b358161128a565b92915050565b600081359050610b4a816112a1565b92915050565b60008060008060808587031215610b6657600080fd5b6000610b7487828801610b26565b9450506020610b8587828801610b3b565b9350506040610b9687828801610b3b565b9250506060610ba787828801610b3b565b91505092959194509250565b600060208284031215610bc557600080fd5b6000610bd384828501610b3b565b91505092915050565b610be581611049565b82525050565b610bf481611037565b82525050565b610c038161105b565b82525050565b610c12816110a3565b82525050565b6000610c25601183610f11565b9150610c308261116e565b602082019050919050565b6000610c48601f83610f11565b9150610c5382611197565b602082019050919050565b6000610c6b603383610f11565b9150610c76826111c0565b604082019050919050565b6000610c8e600f83610f11565b9150610c998261120f565b602082019050919050565b6000610cb1601283610f11565b9150610cbc82611238565b602082019050919050565b6000610cd4601f83610f11565b9150610cdf82611261565b602082019050919050565b610cf381611099565b82525050565b6000602082019050610d0e6000830184610bdc565b92915050565b6000606082019050610d296000830186610beb565b610d366020830185610beb565b610d436040830184610cea565b949350505050565b60006020820190508181036000830152610d6481610c18565b9050919050565b60006020820190508181036000830152610d8481610c3b565b9050919050565b60006020820190508181036000830152610da481610c5e565b9050919050565b60006020820190508181036000830152610dc481610c81565b9050919050565b60006020820190508181036000830152610de481610ca4565b9050919050565b60006020820190508181036000830152610e0481610cc7565b9050919050565b6000602082019050610e206000830184610cea565b92915050565b600060e082019050610e3b600083018a610cea565b610e486020830189610c09565b610e556040830188610cea565b610e626060830187610cea565b610e6f6080830186610bdc565b610e7c60a0830185610bfa565b610e8960c0830184610cea565b98975050505050505050565b6000606082019050610eaa6000830186610cea565b610eb76020830185610cea565b610ec46040830184610cea565b949350505050565b6000608082019050610ee16000830187610cea565b610eee6020830186610cea565b610efb6040830185610cea565b610f086060830184610cea565b95945050505050565b600082825260208201905092915050565b6000610f2d82611099565b9150610f3883611099565b9250827fffffffffffffffffffffffffffffffffffffffffffffffffffffffffffffffff03821115610f6d57610f6c611110565b5b828201905092915050565b6000610f8382611099565b9150610f8e83611099565b925082610f9e57610f9d61113f565b5b828204905092915050565b6000610fb482611099565b9150610fbf83611099565b9250817fffffffffffffffffffffffffffffffffffffffffffffffffffffffffffffffff0483118215151615610ff857610ff7611110565b5b828202905092915050565b600061100e82611099565b915061101983611099565b92508282101561102c5761102b611110565b5b828203905092915050565b600061104282611079565b9050919050565b600061105482611079565b9050919050565b60008115159050919050565b600061107282611037565b9050919050565b600073ffffffffffffffffffffffffffffffffffffffff82169050919050565b6000819050919050565b60006110ae826110b5565b9050919050565b60006110c082611079565b9050919050565b60006110d282611099565b91507fffffffffffffffffffffffffffffffffffffffffffffffffffffffffffffffff82141561110557611104611110565b5b600182019050919050565b7f4e487b7100000000000000000000000000000000000000000000000000000000600052601160045260246000fd5b7f4e487b7100000000000000000000000000000000000000000000000000000000600052601260045260246000fd5b7f6974656d20616c726561647920736f6c64000000000000000000000000000000600082015250565b7f5072696365206d7573742062652067726561746572207468616e207a65726f00600082015250565b7f6e6f7420656e6f75676820657468657220746f20636f766572206974656d207060008201527f7269636520616e64206d61726b65742066656500000000000000000000000000602082015250565b7f4e46542068617320657870697265640000000000000000000000000000000000600082015250565b7f6974656d20646f65736e27742065786973740000000000000000000000000000600082015250565b7f5265656e7472616e637947756172643a207265656e7472616e742063616c6c00600082015250565b61129381611067565b811461129e57600080fd5b50565b6112aa81611099565b81146112b557600080fd5b5056fea26469706673582212206c70a9a2eaf0d4f9b0f9ab98dd031b53d32017143136f4e6a8366d63140b5e2d64736f6c63430008040033",
  "linkReferences": {},
  "deployedLinkReferences": {}
}