{
  "_format": "hh-sol-artifact-1",
  "contractName": "NFT",
  "sourceName": "src/backend/contracts/NFT.sol",
  "abi": [
    {
      "inputs": [],
      "stateMutability": "nonpayable",
      "type": "constructor"
    },
    {
      "anonymous": false,
      "inputs": [
        {
          "indexed": true,
          "internalType": "address",
          "name": "owner",
          "type": "address"
        },
        {
          "indexed": true,
          "internalType": "address",
          "name": "approved",
          "type": "address"
        },
        {
          "indexed": true,
          "internalType": "uint256",
          "name": "tokenId",
          "type": "uint256"
        }
      ],
      "name": "Approval",
      "type": "event"
    },
    {
      "anonymous": false,
      "inputs": [
        {
          "indexed": true,
          "internalType": "address",
          "name": "owner",
          "type": "address"
        },
        {
          "indexed": true,
          "internalType": "address",
          "name": "operator",
          "type": "address"
        },
        {
          "indexed": false,
          "internalType": "bool",
          "name": "approved",
          "type": "bool"
        }
      ],
      "name": "ApprovalForAll",
      "type": "event"
    },
    {
      "anonymous": false,
      "inputs": [
        {
          "indexed": false,
          "internalType": "uint256",
          "name": "_fromTokenId",
          "type": "uint256"
        },
        {
          "indexed": false,
          "internalType": "uint256",
          "name": "_toTokenId",
          "type": "uint256"
        }
      ],
      "name": "BatchMetadataUpdate",
      "type": "event"
    },
    {
      "anonymous": false,
      "inputs": [
        {
          "indexed": false,
          "internalType": "uint256",
          "name": "_tokenId",
          "type": "uint256"
        }
      ],
      "name": "MetadataUpdate",
      "type": "event"
    },
    {
      "anonymous": false,
      "inputs": [
        {
          "indexed": true,
          "internalType": "address",
          "name": "from",
          "type": "address"
        },
        {
          "indexed": true,
          "internalType": "address",
          "name": "to",
          "type": "address"
        },
        {
          "indexed": true,
          "internalType": "uint256",
          "name": "tokenId",
          "type": "uint256"
        }
      ],
      "name": "Transfer",
      "type": "event"
    },
    {
      "inputs": [
        {
          "internalType": "address",
          "name": "to",
          "type": "address"
        },
        {
          "internalType": "uint256",
          "name": "tokenId",
          "type": "uint256"
        }
      ],
      "name": "approve",
      "outputs": [],
      "stateMutability": "nonpayable",
      "type": "function"
    },
    {
      "inputs": [
        {
          "internalType": "address",
          "name": "owner",
          "type": "address"
        }
      ],
      "name": "balanceOf",
      "outputs": [
        {
          "internalType": "uint256",
          "name": "",
          "type": "uint256"
        }
      ],
      "stateMutability": "view",
      "type": "function"
    },
    {
      "inputs": [
        {
          "internalType": "uint256",
          "name": "",
          "type": "uint256"
        }
      ],
      "name": "expirationTime",
      "outputs": [
        {
          "internalType": "uint256",
          "name": "",
          "type": "uint256"
        }
      ],
      "stateMutability": "view",
      "type": "function"
    },
    {
      "inputs": [
        {
          "internalType": "uint256",
          "name": "tokenId",
          "type": "uint256"
        }
      ],
      "name": "getApproved",
      "outputs": [
        {
          "internalType": "address",
          "name": "",
          "type": "address"
        }
      ],
      "stateMutability": "view",
      "type": "function"
    },
    {
      "inputs": [
        {
          "internalType": "address",
          "name": "owner",
          "type": "address"
        },
        {
          "internalType": "address",
          "name": "operator",
          "type": "address"
        }
      ],
      "name": "isApprovedForAll",
      "outputs": [
        {
          "internalType": "bool",
          "name": "",
          "type": "bool"
        }
      ],
      "stateMutability": "view",
      "type": "function"
    },
    {
      "inputs": [
        {
          "internalType": "string",
          "name": "_tokenURI",
          "type": "string"
        },
        {
          "internalType": "uint256",
          "name": "_duration",
          "type": "uint256"
        }
      ],
      "name": "mint",
      "outputs": [
        {
          "internalType": "uint256",
          "name": "",
          "type": "uint256"
        }
      ],
      "stateMutability": "nonpayable",
      "type": "function"
    },
    {
      "inputs": [],
      "name": "name",
      "outputs": [
        {
          "internalType": "string",
          "name": "",
          "type": "string"
        }
      ],
      "stateMutability": "view",
      "type": "function"
    },
    {
      "inputs": [
        {
          "internalType": "uint256",
          "name": "tokenId",
          "type": "uint256"
        }
      ],
      "name": "ownerOf",
      "outputs": [
        {
          "internalType": "address",
          "name": "",
          "type": "address"
        }
      ],
      "stateMutability": "view",
      "type": "function"
    },
    {
      "inputs": [
        {
          "internalType": "address",
          "name": "from",
          "type": "address"
        },
        {
          "internalType": "address",
          "name": "to",
          "type": "address"
        },
        {
          "internalType": "uint256",
          "name": "tokenId",
          "type": "uint256"
        }
      ],
      "name": "safeTransferFrom",
      "outputs": [],
      "stateMutability": "nonpayable",
      "type": "function"
    },
    {
      "inputs": [
        {
          "internalType": "address",
          "name": "from",
          "type": "address"
        },
        {
          "internalType": "address",
          "name": "to",
          "type": "address"
        },
        {
          "internalType": "uint256",
          "name": "tokenId",
          "type": "uint256"
        },
        {
          "internalType": "bytes",
          "name": "data",
          "type": "bytes"
        }
      ],
      "name": "safeTransferFrom",
      "outputs": [],
      "stateMutability": "nonpayable",
      "type": "function"
    },
    {
      "inputs": [
        {
          "internalType": "address",
          "name": "operator",
          "type": "address"
        },
        {
          "internalType": "bool",
          "name": "approved",
          "type": "bool"
        }
      ],
      "name": "setApprovalForAll",
      "outputs": [],
      "stateMutability": "nonpayable",
      "type": "function"
    },
    {
      "inputs": [
        {
          "internalType": "bytes4",
          "name": "interfaceId",
          "type": "bytes4"
        }
      ],
      "name": "supportsInterface",
      "outputs": [
        {
          "internalType": "bool",
          "name": "",
          "type": "bool"
        }
      ],
      "stateMutability": "view",
      "type": "function"
    },
    {
      "inputs": [],
      "name": "symbol",
      "outputs": [
        {
          "internalType": "string",
          "name": "",
          "type": "string"
        }
      ],
      "stateMutability": "view",
      "type": "function"
    },
    {
      "inputs": [],
      "name": "tokenCount",
      "outputs": [
        {
          "internalType": "uint256",
          "name": "",
          "type": "uint256"
        }
      ],
      "stateMutability": "view",
      "type": "function"
    },
    {
      "inputs": [
        {
          "internalType": "uint256",
          "name": "tokenId",
          "type": "uint256"
        }
      ],
      "name": "tokenURI",
      "outputs": [
        {
          "internalType": "string",
          "name": "",
          "type": "string"
        }
      ],
      "stateMutability": "view",
      "type": "function"
    },
    {
      "inputs": [
        {
          "internalType": "address",
          "name": "from",
          "type": "address"
        },
        {
          "internalType": "address",
          "name": "to",
          "type": "address"
        },
        {
          "internalType": "uint256",
          "name": "tokenId",
          "type": "uint256"
        }
      ],
      "name": "transferFrom",
      "outputs": [],
      "stateMutability": "nonpayable",
      "type": "function"
    },
    {
      "inputs": [
        {
          "internalType": "address",
          "name": "_to",
          "type": "address"
        },
        {
          "internalType": "uint256",
          "name": "tokenId",
          "type": "uint256"
        }
      ],
      "name": "transferNFT",
      "outputs": [],
      "stateMutability": "nonpayable",
      "type": "function"
    }
  ],
  "bytecode": "0x60806040523480156200001157600080fd5b506040518060400160405280600881526020017f44417070204e46540000000000000000000000000000000000000000000000008152506040518060400160405280600481526020017f4441505000000000000000000000000000000000000000000000000000000000815250816000908051906020019062000096929190620000b8565b508060019080519060200190620000af929190620000b8565b505050620001cd565b828054620000c69062000168565b90600052602060002090601f016020900481019282620000ea576000855562000136565b82601f106200010557805160ff191683800117855562000136565b8280016001018555821562000136579182015b828111156200013557825182559160200191906001019062000118565b5b50905062000145919062000149565b5090565b5b80821115620001645760008160009055506001016200014a565b5090565b600060028204905060018216806200018157607f821691505b602082108114156200019857620001976200019e565b5b50919050565b7f4e487b7100000000000000000000000000000000000000000000000000000000600052602260045260246000fd5b612cad80620001dd6000396000f3fe608060405234801561001057600080fd5b506004361061010b5760003560e01c806370a08231116100a25780639f181b5e116100715780639f181b5e146102dc578063a22cb465146102fa578063b88d4fde14610316578063c87b56dd14610332578063e985e9c5146103625761010b565b806370a08231146102425780637409e4a21461027257806394ab67fe146102a257806395d89b41146102be5761010b565b8063095ea7b3116100de578063095ea7b3146101be57806323b872dd146101da57806342842e0e146101f65780636352211e146102125761010b565b806301ffc9a714610110578063056b01ce1461014057806306fdde0314610170578063081812fc1461018e575b600080fd5b61012a60048036038101906101259190611fcd565b610392565b60405161013791906123be565b60405180910390f35b61015a6004803603810190610155919061201f565b6103f3565b604051610167919061259b565b60405180910390f35b610178610455565b60405161018591906123d9565b60405180910390f35b6101a860048036038101906101a39190612073565b6104e7565b6040516101b59190612357565b60405180910390f35b6101d860048036038101906101d39190611f91565b61052d565b005b6101f460048036038101906101ef9190611e8b565b610645565b005b610210600480360381019061020b9190611e8b565b6106a5565b005b61022c60048036038101906102279190612073565b6106c5565b6040516102399190612357565b60405180910390f35b61025c60048036038101906102579190611e26565b61074c565b604051610269919061259b565b60405180910390f35b61028c60048036038101906102879190612073565b610804565b604051610299919061259b565b60405180910390f35b6102bc60048036038101906102b79190611f91565b61081c565b005b6102c6610883565b6040516102d391906123d9565b60405180910390f35b6102e4610915565b6040516102f1919061259b565b60405180910390f35b610314600480360381019061030f9190611f55565b61091b565b005b610330600480360381019061032b9190611eda565b610931565b005b61034c60048036038101906103479190612073565b610993565b60405161035991906123d9565b60405180910390f35b61037c60048036038101906103779190611e4f565b610aa6565b60405161038991906123be565b60405180910390f35b6000634906490660e01b7bffffffffffffffffffffffffffffffffffffffffffffffffffffffff1916827bffffffffffffffffffffffffffffffffffffffffffffffffffffffff191614806103ec57506103eb82610b3a565b5b9050919050565b600060076000815480929190610408906127ef565b919050555061041933600754610c1c565b61042560075484610c3a565b81426104319190612680565b60086000600754815260200190815260200160002081905550600754905092915050565b6060600080546104649061278c565b80601f01602080910402602001604051908101604052809291908181526020018280546104909061278c565b80156104dd5780601f106104b2576101008083540402835291602001916104dd565b820191906000526020600020905b8154815290600101906020018083116104c057829003601f168201915b5050505050905090565b60006104f282610ce5565b6004600083815260200190815260200160002060009054906101000a900473ffffffffffffffffffffffffffffffffffffffff169050919050565b6000610538826106c5565b90508073ffffffffffffffffffffffffffffffffffffffff168373ffffffffffffffffffffffffffffffffffffffff1614156105a9576040517f08c379a00000000000000000000000000000000000000000000000000000000081526004016105a09061255b565b60405180910390fd5b8073ffffffffffffffffffffffffffffffffffffffff166105c8610d30565b73ffffffffffffffffffffffffffffffffffffffff1614806105f757506105f6816105f1610d30565b610aa6565b5b610636576040517f08c379a000000000000000000000000000000000000000000000000000000000815260040161062d9061257b565b60405180910390fd5b6106408383610d38565b505050565b610656610650610d30565b82610df1565b610695576040517f08c379a000000000000000000000000000000000000000000000000000000000815260040161068c906123fb565b60405180910390fd5b6106a0838383610e86565b505050565b6106c083838360405180602001604052806000815250610931565b505050565b6000806106d183611180565b9050600073ffffffffffffffffffffffffffffffffffffffff168173ffffffffffffffffffffffffffffffffffffffff161415610743576040517f08c379a000000000000000000000000000000000000000000000000000000000815260040161073a9061253b565b60405180910390fd5b80915050919050565b60008073ffffffffffffffffffffffffffffffffffffffff168273ffffffffffffffffffffffffffffffffffffffff1614156107bd576040517f08c379a00000000000000000000000000000000000000000000000000000000081526004016107b4906124db565b60405180910390fd5b600360008373ffffffffffffffffffffffffffffffffffffffff1673ffffffffffffffffffffffffffffffffffffffff168152602001908152602001600020549050919050565b60086020528060005260406000206000915090505481565b806008600082815260200190815260200160002054421115610873576040517f08c379a000000000000000000000000000000000000000000000000000000000815260040161086a9061249b565b60405180910390fd5b61087e3384846106a5565b505050565b6060600180546108929061278c565b80601f01602080910402602001604051908101604052809291908181526020018280546108be9061278c565b801561090b5780601f106108e05761010080835404028352916020019161090b565b820191906000526020600020905b8154815290600101906020018083116108ee57829003601f168201915b5050505050905090565b60075481565b61092d610926610d30565b83836111bd565b5050565b61094261093c610d30565b83610df1565b610981576040517f08c379a0000000000000000000000000000000000000000000000000000000008152600401610978906123fb565b60405180910390fd5b61098d8484848461132a565b50505050565b606061099e82610ce5565b60006006600084815260200190815260200160002080546109be9061278c565b80601f01602080910402602001604051908101604052809291908181526020018280546109ea9061278c565b8015610a375780601f10610a0c57610100808354040283529160200191610a37565b820191906000526020600020905b815481529060010190602001808311610a1a57829003601f168201915b505050505090506000610a48611386565b9050600081511415610a5e578192505050610aa1565b600082511115610a93578082604051602001610a7b929190612333565b60405160208183030381529060405292505050610aa1565b610a9c8461139d565b925050505b919050565b6000600560008473ffffffffffffffffffffffffffffffffffffffff1673ffffffffffffffffffffffffffffffffffffffff16815260200190815260200160002060008373ffffffffffffffffffffffffffffffffffffffff1673ffffffffffffffffffffffffffffffffffffffff16815260200190815260200160002060009054906101000a900460ff16905092915050565b60007f80ac58cd000000000000000000000000000000000000000000000000000000007bffffffffffffffffffffffffffffffffffffffffffffffffffffffff1916827bffffffffffffffffffffffffffffffffffffffffffffffffffffffff19161480610c0557507f5b5e139f000000000000000000000000000000000000000000000000000000007bffffffffffffffffffffffffffffffffffffffffffffffffffffffff1916827bffffffffffffffffffffffffffffffffffffffffffffffffffffffff1916145b80610c155750610c1482611405565b5b9050919050565b610c3682826040518060200160405280600081525061146f565b5050565b610c43826114ca565b610c82576040517f08c379a0000000000000000000000000000000000000000000000000000000008152600401610c79906124fb565b60405180910390fd5b80600660008481526020019081526020016000209080519060200190610ca9929190611c4a565b507ff8e1a15aba9398e019f0b49df1a4fde98ee17ae345cb5f6b5e2c27f5033e8ce782604051610cd9919061259b565b60405180910390a15050565b610cee816114ca565b610d2d576040517f08c379a0000000000000000000000000000000000000000000000000000000008152600401610d249061253b565b60405180910390fd5b50565b600033905090565b816004600083815260200190815260200160002060006101000a81548173ffffffffffffffffffffffffffffffffffffffff021916908373ffffffffffffffffffffffffffffffffffffffff160217905550808273ffffffffffffffffffffffffffffffffffffffff16610dab836106c5565b73ffffffffffffffffffffffffffffffffffffffff167f8c5be1e5ebec7d5bd14f71427d1e84f3dd0314c0f7b2291e5b200ac8c7c3b92560405160405180910390a45050565b600080610dfd836106c5565b90508073ffffffffffffffffffffffffffffffffffffffff168473ffffffffffffffffffffffffffffffffffffffff161480610e3f5750610e3e8185610aa6565b5b80610e7d57508373ffffffffffffffffffffffffffffffffffffffff16610e65846104e7565b73ffffffffffffffffffffffffffffffffffffffff16145b91505092915050565b8273ffffffffffffffffffffffffffffffffffffffff16610ea6826106c5565b73ffffffffffffffffffffffffffffffffffffffff1614610efc576040517f08c379a0000000000000000000000000000000000000000000000000000000008152600401610ef39061243b565b60405180910390fd5b600073ffffffffffffffffffffffffffffffffffffffff168273ffffffffffffffffffffffffffffffffffffffff161415610f6c576040517f08c379a0000000000000000000000000000000000000000000000000000000008152600401610f639061247b565b60405180910390fd5b610f79838383600161150b565b8273ffffffffffffffffffffffffffffffffffffffff16610f99826106c5565b73ffffffffffffffffffffffffffffffffffffffff1614610fef576040517f08c379a0000000000000000000000000000000000000000000000000000000008152600401610fe69061243b565b60405180910390fd5b6004600082815260200190815260200160002060006101000a81549073ffffffffffffffffffffffffffffffffffffffff02191690556001600360008573ffffffffffffffffffffffffffffffffffffffff1673ffffffffffffffffffffffffffffffffffffffff168152602001908152602001600020600082825403925050819055506001600360008473ffffffffffffffffffffffffffffffffffffffff1673ffffffffffffffffffffffffffffffffffffffff16815260200190815260200160002060008282540192505081905550816002600083815260200190815260200160002060006101000a81548173ffffffffffffffffffffffffffffffffffffffff021916908373ffffffffffffffffffffffffffffffffffffffff160217905550808273ffffffffffffffffffffffffffffffffffffffff168473ffffffffffffffffffffffffffffffffffffffff167fddf252ad1be2c89b69c2b068fc378daa952ba7f163c4a11628f55a4df523b3ef60405160405180910390a461117b8383836001611511565b505050565b60006002600083815260200190815260200160002060009054906101000a900473ffffffffffffffffffffffffffffffffffffffff169050919050565b8173ffffffffffffffffffffffffffffffffffffffff168373ffffffffffffffffffffffffffffffffffffffff16141561122c576040517f08c379a0000000000000000000000000000000000000000000000000000000008152600401611223906124bb565b60405180910390fd5b80600560008573ffffffffffffffffffffffffffffffffffffffff1673ffffffffffffffffffffffffffffffffffffffff16815260200190815260200160002060008473ffffffffffffffffffffffffffffffffffffffff1673ffffffffffffffffffffffffffffffffffffffff16815260200190815260200160002060006101000a81548160ff0219169083151502179055508173ffffffffffffffffffffffffffffffffffffffff168373ffffffffffffffffffffffffffffffffffffffff167f17307eab39ab6107e8899845ad3d59bd9653f200f220920489ca2b5937696c318360405161131d91906123be565b60405180910390a3505050565b611335848484610e86565b61134184848484611517565b611380576040517f08c379a00000000000000000000000000000000000000000000000000000000081526004016113779061241b565b60405180910390fd5b50505050565b606060405180602001604052806000815250905090565b60606113a882610ce5565b60006113b2611386565b905060008151116113d257604051806020016040528060008152506113fd565b806113dc846116ae565b6040516020016113ed929190612333565b6040516020818303038152906040525b915050919050565b60007f01ffc9a7000000000000000000000000000000000000000000000000000000007bffffffffffffffffffffffffffffffffffffffffffffffffffffffff1916827bffffffffffffffffffffffffffffffffffffffffffffffffffffffff1916149050919050565b61147983836117d2565b6114866000848484611517565b6114c5576040517f08c379a00000000000000000000000000000000000000000000000000000000081526004016114bc9061241b565b60405180910390fd5b505050565b60008073ffffffffffffffffffffffffffffffffffffffff166114ec83611180565b73ffffffffffffffffffffffffffffffffffffffff1614159050919050565b50505050565b50505050565b60006115388473ffffffffffffffffffffffffffffffffffffffff166119f0565b156116a1578373ffffffffffffffffffffffffffffffffffffffff1663150b7a02611561610d30565b8786866040518563ffffffff1660e01b81526004016115839493929190612372565b602060405180830381600087803b15801561159d57600080fd5b505af19250505080156115ce57506040513d601f19601f820116820180604052508101906115cb9190611ff6565b60015b611651573d80600081146115fe576040519150601f19603f3d011682016040523d82523d6000602084013e611603565b606091505b50600081511415611649576040517f08c379a00000000000000000000000000000000000000000000000000000000081526004016116409061241b565b60405180910390fd5b805181602001fd5b63150b7a0260e01b7bffffffffffffffffffffffffffffffffffffffffffffffffffffffff1916817bffffffffffffffffffffffffffffffffffffffffffffffffffffffff1916149150506116a6565b600190505b949350505050565b6060600060016116bd84611a13565b01905060008167ffffffffffffffff811115611702577f4e487b7100000000000000000000000000000000000000000000000000000000600052604160045260246000fd5b6040519080825280601f01601f1916602001820160405280156117345781602001600182028036833780820191505090505b509050600082602001820190505b6001156117c7578080600190039150507f3031323334353637383961626364656600000000000000000000000000000000600a86061a8153600a85816117b1577f4e487b7100000000000000000000000000000000000000000000000000000000600052601260045260246000fd5b04945060008514156117c2576117c7565b611742565b819350505050919050565b600073ffffffffffffffffffffffffffffffffffffffff168273ffffffffffffffffffffffffffffffffffffffff161415611842576040517f08c379a00000000000000000000000000000000000000000000000000000000081526004016118399061251b565b60405180910390fd5b61184b816114ca565b1561188b576040517f08c379a00000000000000000000000000000000000000000000000000000000081526004016118829061245b565b60405180910390fd5b61189960008383600161150b565b6118a2816114ca565b156118e2576040517f08c379a00000000000000000000000000000000000000000000000000000000081526004016118d99061245b565b60405180910390fd5b6001600360008473ffffffffffffffffffffffffffffffffffffffff1673ffffffffffffffffffffffffffffffffffffffff16815260200190815260200160002060008282540192505081905550816002600083815260200190815260200160002060006101000a81548173ffffffffffffffffffffffffffffffffffffffff021916908373ffffffffffffffffffffffffffffffffffffffff160217905550808273ffffffffffffffffffffffffffffffffffffffff16600073ffffffffffffffffffffffffffffffffffffffff167fddf252ad1be2c89b69c2b068fc378daa952ba7f163c4a11628f55a4df523b3ef60405160405180910390a46119ec600083836001611511565b5050565b6000808273ffffffffffffffffffffffffffffffffffffffff163b119050919050565b600080600090507a184f03e93ff9f4daa797ed6e38ed64bf6a1f0100000000000000008310611a97577a184f03e93ff9f4daa797ed6e38ed64bf6a1f0100000000000000008381611a8d577f4e487b7100000000000000000000000000000000000000000000000000000000600052601260045260246000fd5b0492506040810190505b6d04ee2d6d415b85acef81000000008310611afa576d04ee2d6d415b85acef81000000008381611af0577f4e487b7100000000000000000000000000000000000000000000000000000000600052601260045260246000fd5b0492506020810190505b662386f26fc100008310611b4f57662386f26fc100008381611b45577f4e487b7100000000000000000000000000000000000000000000000000000000600052601260045260246000fd5b0492506010810190505b6305f5e1008310611b9e576305f5e1008381611b94577f4e487b7100000000000000000000000000000000000000000000000000000000600052601260045260246000fd5b0492506008810190505b6127108310611be9576127108381611bdf577f4e487b7100000000000000000000000000000000000000000000000000000000600052601260045260246000fd5b0492506004810190505b60648310611c325760648381611c28577f4e487b7100000000000000000000000000000000000000000000000000000000600052601260045260246000fd5b0492506002810190505b600a8310611c41576001810190505b80915050919050565b828054611c569061278c565b90600052602060002090601f016020900481019282611c785760008555611cbf565b82601f10611c9157805160ff1916838001178555611cbf565b82800160010185558215611cbf579182015b82811115611cbe578251825591602001919060010190611ca3565b5b509050611ccc9190611cd0565b5090565b5b80821115611ce9576000816000905550600101611cd1565b5090565b6000611d00611cfb846125db565b6125b6565b905082815260208101848484011115611d1857600080fd5b611d2384828561274a565b509392505050565b6000611d3e611d398461260c565b6125b6565b905082815260208101848484011115611d5657600080fd5b611d6184828561274a565b509392505050565b600081359050611d7881612c1b565b92915050565b600081359050611d8d81612c32565b92915050565b600081359050611da281612c49565b92915050565b600081519050611db781612c49565b92915050565b600082601f830112611dce57600080fd5b8135611dde848260208601611ced565b91505092915050565b600082601f830112611df857600080fd5b8135611e08848260208601611d2b565b91505092915050565b600081359050611e2081612c60565b92915050565b600060208284031215611e3857600080fd5b6000611e4684828501611d69565b91505092915050565b60008060408385031215611e6257600080fd5b6000611e7085828601611d69565b9250506020611e8185828601611d69565b9150509250929050565b600080600060608486031215611ea057600080fd5b6000611eae86828701611d69565b9350506020611ebf86828701611d69565b9250506040611ed086828701611e11565b9150509250925092565b60008060008060808587031215611ef057600080fd5b6000611efe87828801611d69565b9450506020611f0f87828801611d69565b9350506040611f2087828801611e11565b925050606085013567ffffffffffffffff811115611f3d57600080fd5b611f4987828801611dbd565b91505092959194509250565b60008060408385031215611f6857600080fd5b6000611f7685828601611d69565b9250506020611f8785828601611d7e565b9150509250929050565b60008060408385031215611fa457600080fd5b6000611fb285828601611d69565b9250506020611fc385828601611e11565b9150509250929050565b600060208284031215611fdf57600080fd5b6000611fed84828501611d93565b91505092915050565b60006020828403121561200857600080fd5b600061201684828501611da8565b91505092915050565b6000806040838503121561203257600080fd5b600083013567ffffffffffffffff81111561204c57600080fd5b61205885828601611de7565b925050602061206985828601611e11565b9150509250929050565b60006020828403121561208557600080fd5b600061209384828501611e11565b91505092915050565b6120a5816126d6565b82525050565b6120b4816126e8565b82525050565b60006120c58261263d565b6120cf8185612653565b93506120df818560208601612759565b6120e8816128c5565b840191505092915050565b60006120fe82612648565b6121088185612664565b9350612118818560208601612759565b612121816128c5565b840191505092915050565b600061213782612648565b6121418185612675565b9350612151818560208601612759565b80840191505092915050565b600061216a602d83612664565b9150612175826128d6565b604082019050919050565b600061218d603283612664565b915061219882612925565b604082019050919050565b60006121b0602583612664565b91506121bb82612974565b604082019050919050565b60006121d3601c83612664565b91506121de826129c3565b602082019050919050565b60006121f6602483612664565b9150612201826129ec565b604082019050919050565b6000612219600f83612664565b915061222482612a3b565b602082019050919050565b600061223c601983612664565b915061224782612a64565b602082019050919050565b600061225f602983612664565b915061226a82612a8d565b604082019050919050565b6000612282602e83612664565b915061228d82612adc565b604082019050919050565b60006122a5602083612664565b91506122b082612b2b565b602082019050919050565b60006122c8601883612664565b91506122d382612b54565b602082019050919050565b60006122eb602183612664565b91506122f682612b7d565b604082019050919050565b600061230e603d83612664565b915061231982612bcc565b604082019050919050565b61232d81612740565b82525050565b600061233f828561212c565b915061234b828461212c565b91508190509392505050565b600060208201905061236c600083018461209c565b92915050565b6000608082019050612387600083018761209c565b612394602083018661209c565b6123a16040830185612324565b81810360608301526123b381846120ba565b905095945050505050565b60006020820190506123d360008301846120ab565b92915050565b600060208201905081810360008301526123f381846120f3565b905092915050565b600060208201905081810360008301526124148161215d565b9050919050565b6000602082019050818103600083015261243481612180565b9050919050565b60006020820190508181036000830152612454816121a3565b9050919050565b60006020820190508181036000830152612474816121c6565b9050919050565b60006020820190508181036000830152612494816121e9565b9050919050565b600060208201905081810360008301526124b48161220c565b9050919050565b600060208201905081810360008301526124d48161222f565b9050919050565b600060208201905081810360008301526124f481612252565b9050919050565b6000602082019050818103600083015261251481612275565b9050919050565b6000602082019050818103600083015261253481612298565b9050919050565b60006020820190508181036000830152612554816122bb565b9050919050565b60006020820190508181036000830152612574816122de565b9050919050565b6000602082019050818103600083015261259481612301565b9050919050565b60006020820190506125b06000830184612324565b92915050565b60006125c06125d1565b90506125cc82826127be565b919050565b6000604051905090565b600067ffffffffffffffff8211156125f6576125f5612896565b5b6125ff826128c5565b9050602081019050919050565b600067ffffffffffffffff82111561262757612626612896565b5b612630826128c5565b9050602081019050919050565b600081519050919050565b600081519050919050565b600082825260208201905092915050565b600082825260208201905092915050565b600081905092915050565b600061268b82612740565b915061269683612740565b9250827fffffffffffffffffffffffffffffffffffffffffffffffffffffffffffffffff038211156126cb576126ca612838565b5b828201905092915050565b60006126e182612720565b9050919050565b60008115159050919050565b60007fffffffff0000000000000000000000000000000000000000000000000000000082169050919050565b600073ffffffffffffffffffffffffffffffffffffffff82169050919050565b6000819050919050565b82818337600083830152505050565b60005b8381101561277757808201518184015260208101905061275c565b83811115612786576000848401525b50505050565b600060028204905060018216806127a457607f821691505b602082108114156127b8576127b7612867565b5b50919050565b6127c7826128c5565b810181811067ffffffffffffffff821117156127e6576127e5612896565b5b80604052505050565b60006127fa82612740565b91507fffffffffffffffffffffffffffffffffffffffffffffffffffffffffffffffff82141561282d5761282c612838565b5b600182019050919050565b7f4e487b7100000000000000000000000000000000000000000000000000000000600052601160045260246000fd5b7f4e487b7100000000000000000000000000000000000000000000000000000000600052602260045260246000fd5b7f4e487b7100000000000000000000000000000000000000000000000000000000600052604160045260246000fd5b6000601f19601f8301169050919050565b7f4552433732313a2063616c6c6572206973206e6f7420746f6b656e206f776e6560008201527f72206f7220617070726f76656400000000000000000000000000000000000000602082015250565b7f4552433732313a207472616e7366657220746f206e6f6e20455243373231526560008201527f63656976657220696d706c656d656e7465720000000000000000000000000000602082015250565b7f4552433732313a207472616e736665722066726f6d20696e636f72726563742060008201527f6f776e6572000000000000000000000000000000000000000000000000000000602082015250565b7f4552433732313a20746f6b656e20616c7265616479206d696e74656400000000600082015250565b7f4552433732313a207472616e7366657220746f20746865207a65726f2061646460008201527f7265737300000000000000000000000000000000000000000000000000000000602082015250565b7f4e46542068617320657870697265640000000000000000000000000000000000600082015250565b7f4552433732313a20617070726f766520746f2063616c6c657200000000000000600082015250565b7f4552433732313a2061646472657373207a65726f206973206e6f74206120766160008201527f6c6964206f776e65720000000000000000000000000000000000000000000000602082015250565b7f45524337323155524953746f726167653a2055524920736574206f66206e6f6e60008201527f6578697374656e7420746f6b656e000000000000000000000000000000000000602082015250565b7f4552433732313a206d696e7420746f20746865207a65726f2061646472657373600082015250565b7f4552433732313a20696e76616c696420746f6b656e2049440000000000000000600082015250565b7f4552433732313a20617070726f76616c20746f2063757272656e74206f776e6560008201527f7200000000000000000000000000000000000000000000000000000000000000602082015250565b7f4552433732313a20617070726f76652063616c6c6572206973206e6f7420746f60008201527f6b656e206f776e6572206f7220617070726f76656420666f7220616c6c000000602082015250565b612c24816126d6565b8114612c2f57600080fd5b50565b612c3b816126e8565b8114612c4657600080fd5b50565b612c52816126f4565b8114612c5d57600080fd5b50565b612c6981612740565b8114612c7457600080fd5b5056fea2646970667358221220acbfd32e5ca00753c4b59655f15154c0cc531b22ed223fe51baebb0c0eaddff464736f6c63430008040033",
  "linkReferences": {},
  "deployedLinkReferences": {}
}